:100000000C9472000C9485180C94AC180C949A0003
:100010000C949A000C949A000C949A000C94580337
:100020000C949A000C949A000C949A000C94211150
:100030000C949A000C949A000C949A000C949A00D8
:100040000C94D3180C949A000C949E1B0C94D01B07
:100050000C949A000C949A000C949A000C949A00B8
:100060000C94BE0F0C949A00A914AD147014731460
:1000700076147A147E148114851488148B148E14CB
:100080009114951499149D14A014A3140000000851
:10009000000201000003040700000000000000004F
:1000A000010204081020408001020408102001020F
:1000B00004081020040404040404040402020202DC
:1000C00002020303030303030000000025002800CD
:1000D0002B0000000000240027002A00EA07910FEF
:1000E0005F18001C11241FBECFEFD8E0DEBFCDBFCC
:1000F00012E0A0E0B1E0E2E8F0E402C005900D9269
:10010000AE3FB107D9F724E0AEEFB2E001C01D92D7
:10011000AD3FB207E1F710E0C4EED0E004C0229793
:10012000FE010E942120CC3DD107C9F70E94441C4A
:100130000C943F200C940000809140039091410367
:10014000A0914203B09143030196A11DB11D80937C
:10015000400390934103A0934203B0934303089557
:100160004F925F926F927F928F929F92AF92BF92C7
:10017000CF92DF92EF92FF920F931F93CF93DF9373
:10018000CDB7DEB72C970FB6F894DEBF0FBECDBF4C
:100190006B017C01DA018D909D90AD90BC9013971E
:1001A00014968D919D910D90BC91A02D89839A8379
:1001B000AB83BC83DA0118968D919D910D90BC9113
:1001C000A02D8D839E83AF83B887FA014484558424
:1001D000668477849C01AD01C701B6010E940C1EA4
:1001E000181684F5A7019601C301B2010E940C1EE6
:1001F00087FD2FC0A30192016D817E818F8198853B
:100200000E940C1E882329F1A7019601C301B201A7
:100210000E94A71D69877A878B879C872D813E81E5
:100220004F815885C301B2010E94A71D9B01AC01FB
:1002300069857A858B859C850E94101E3B01582E0E
:10024000492E0BC0612C712C80E8582E9FE3492E5B
:1002500004C0612C712C512C412CA701960169819D
:100260007A818B819C810E940C1E18165CF5A50179
:100270009401C701B6010E940C1E87FD28C0298188
:100280003A814B815C81C501B4010E940C1E882318
:10029000F1F0A5019401C701B6010E94A71D6B01F1
:1002A0007C01A501940169817A818B819C810E94E6
:1002B000A71D9B01AC01C701B6010E94101E7B0166
:1002C0008C0109C0E12CF12C00E81FE304C0E12CF3
:1002D000F12C00E010E09701A801B301852D942DC9
:1002E0000E940C1E87FF03C0052D142D01C037018D
:1002F000B301C8012C960FB6F894DEBF0FBECDBF78
:10030000DF91CF911F910F91FF90EF90DF90CF90F1
:10031000BF90AF909F908F907F906F905F904F9025
:1003200008952F923F924F925F926F927F928F9299
:100330009F92AF92BF92CF92DF92EF92FF920F9374
:100340001F93CF93DF93CDB7DEB728970FB6F894FE
:10035000DEBF0FBECDBF6B017C01DA018D919D9197
:100360000D90BC91A02D89839A83AB83BC83FA0145
:1003700084809580A680B78080859185A285B3858D
:100380008D839E83AF83B887A7019601BC01CD0101
:100390000E94A71D2B013C01A50194016D817E8166
:1003A0008F8198850E94A71D9B01AC01C301B201FA
:1003B0000E94101E362E272E182F092FA5019401FA
:1003C00069817A818B819C810E940C1E811146C0BB
:1003D0002D813E814F815885C501B4010E940C1EBC
:1003E00081110FC029813A814B815C81C701B6011F
:1003F0000E940C1E20E030E08111A5C010E80FE340
:10040000A7C0A7019601C501B4010E940C1E1816D1
:100410002CF020E030E040E85FE303C020E030E073
:10042000A901632D722D812F902F0E945F1F4B0118
:100430005C012D813E814F815885C701B6010E9424
:100440000C1E18162CF020E030E040E85FE303C0FB
:1004500020E030E0A901C501B40152C029813A81F0
:100460004B815C81C701B6010E94A71D2B013C0195
:1004700029813A814B815C81C501B4010E94A71D8D
:100480009B01AC01C301B2010E94101E562E672EC3
:10049000782E492E2D813E814F815885C501B401AA
:1004A0000E940C1E811132C0A701960169817A81D8
:1004B0008B819C810E940C1E18162CF020E030E0ED
:1004C00040E85FE303C020E030E0A901652D762D10
:1004D000872D942D0E945F1F2B013C01A5019401E3
:1004E000C701B6010E940C1E18162CF020E030E067
:1004F00040E85FE303C020E030E0A901C301B2019E
:100500000E945F1F9B01182F092F22C0232D322D1F
:10051000412F502F652D762D872D942D0E940C1E76
:1005200087FF04C0352C262C172D042D20E030E049
:10053000A901632D722D812F902F0E945B1F181629
:100540002CF020E030E010E000E002C0232D322D3E
:10055000B901812F902F28960FB6F894DEBF0FBEF9
:10056000CDBFDF91CF911F910F91FF90EF90DF9062
:10057000CF90BF90AF909F908F907F906F905F9043
:100580004F903F902F900895CF92DF92EF92FF927D
:100590000F931F93CF93DF936B017C018901D42FBD
:1005A000C52F0E945B1F18161CF48601DE2DCF2D6F
:1005B000B8018D2F9C2FDF91CF911F910F91FF904C
:1005C000EF90DF90CF90089561E087E00E94231ABA
:1005D00064EF71E080E090E00E944C1910923C03BF
:1005E00010923D0310923E0310923F031092380385
:1005F0001092390310923A0310923B031092340385
:1006000010923503109236031092370365E070E0C4
:1006100084E493E00E94771268EC70E080E090E060
:100620000E944C196CED75E084E493E00E948B12FB
:1006300043E050E06CE970E081E00E94651826E03C
:1006400040E855E260E070E080E694E00E943C1BE8
:100650006BE772E080E694E00E949C1C60E187E416
:1006600093E00E948516811110C061E872E080E677
:1006700094E00E949C1C60ED77E080E090E00E9496
:100680004C190E94E4170C94B41769E972E080E6F3
:1006900094E00E949C1C62EB72E080E694E00E9471
:1006A0009C1C64E670E080E090E00E944C19D6CF7C
:1006B0001F920F920FB60F9211242F933F934F93D7
:1006C0005F936F937F938F939F93AF93BF93EF93BA
:1006D000FF930E949517FF91EF91BF91AF919F916A
:1006E0008F917F916F915F914F913F912F910F90DB
:1006F0000FBE0F901F901895AF92BF92CF92DF92CE
:10070000EF92FF920F931F93CF93DF93FC01EB01C6
:100710006A01209709F1A081B181B280A380613084
:100720007105F1F07C0184E0E80EF11C01E010E0BD
:100730000C171D07ACF4F7012191319141915191B2
:100740007F01BD018B2D9A2DF6010995DB01B82E95
:10075000A92E0F5F1F4FECCFA0E0B0E0B12CA12C71
:10076000BD018B2D9A2DDF91CF911F910F91FF909D
:10077000EF90DF90CF90BF90AF9008952F923F926F
:100780004F925F926F927F928F929F92AF92BF92A1
:10079000CF92DF92EF92FF920F931F93CF93DF934D
:1007A000CDB7DEB72C970FB6F894DEBF0FBECDBF26
:1007B0009C838B836A017B018901000F111F8CE0F0
:1007C00091E09A8389831C861B86D801A456BE4F6C
:1007D000BE83AD83F801E455FE4FF887EF83A9810E
:1007E000BA81ED91FD91BA83A983E00FF11F808159
:1007F00091811816190604F50197880F991FAD818C
:10080000BE81ED91FC91E80FF91F0190F081E02D80
:10081000EE0FFF1FE059FD4FAF81B8852D913C9140
:10082000280F391FD9014D915C910190F081E02D85
:10083000C701B60109952AC0009759F18095909596
:10084000880F991FAD81BE81ED91FC91E80FF91FD2
:100850000190F081E02DEE0FFF1FE059FD4FAF81B9
:10086000B8852D913C91280F391FD9014D915C918C
:100870000190F081E02DC701B60109959B01AC0103
:1008800060E070E080E89FE30E94A71D4B015C01DF
:1008900004C0812C912CA12CB12CEB81FC812080F7
:1008A00031808B859C85820D931D9A878987A281D3
:1008B000B381EB85FC85AE0FBF1F5C9011966C90E9
:1008C000119712967C90129713964C90252D362DE9
:1008D000472D542DB401C5010E940C1E87FD04C094
:1008E000852C962CA72CB42CC401D501E985FA855A
:1008F00080839183A283B3838B859C8504969C8798
:100900008B87849709F06BCF44EC52E069E070E08C
:10091000C1012C960FB6F894DEBF0FBECDBFDF919C
:10092000CF911F910F91FF90EF90DF90CF90BF90EC
:10093000AF909F908F907F906F905F904F903F907F
:100940002F900C947C032F923F924F925F926F9264
:100950007F928F929F92AF92BF92CF92DF92EF924F
:10096000FF920F931F93CF93DF93CDB7DEB72E97F0
:100970000FB6F894DEBF0FBECDBF9C878B871B01DF
:10098000CB01880F991F880F991F9A838983FC01D7
:10099000EC5FFE4F885F9E4F3C01DC012D913D9145
:1009A0004D915C9160817181828193810E94A71D2C
:1009B00020E030E048EC52E40E94101E6B837C8300
:1009C0008D839E8300E010E0812C912C54017501F1
:1009D00064017E866D86B801882777FD8095982F03
:1009E0000E94AB1E9B01AC016B817C818D819E813D
:1009F0000E945F1FED85FE852081318142815381F8
:100A00000E94A81D6F83788789879A879101AB011F
:100A1000BC018B859C850E94BE039B01AC016B8150
:100A20007C818D819E810E945F1F2B013C019B0177
:100A3000AC01C701B6010E94A81D6B017C012F818A
:100A4000388549855A85C301B2010E945F1F9B0109
:100A5000AC01C501B4010E94A81D4B015C010F5FF0
:100A60001F4F0536110509F0B6CF20E030E0A9018F
:100A7000C701B6010E940C1E811117C0E981FA81DD
:100A8000EC5FFE4FAD85BE852D913D914D915C9102
:100A900060817181828193810E94A81D20E030E0F5
:100AA00040E05FE30E945F1F06C0A7019601C501F9
:100AB000B4010E94101E2E960FB6F894DEBF0FBE32
:100AC000CDBFDF91CF911F910F91FF90EF90DF90FD
:100AD000CF90BF90AF909F908F907F906F905F90DE
:100AE0004F903F902F9008952F923F924F925F9298
:100AF0006F927F928F929F92AF92BF92CF92DF922E
:100B0000EF92FF920F931F93CF93DF93CDB7DEB792
:100B1000C257D1090FB6F894DEBF0FBECDBFDE01BC
:100B2000AB5ABF4F1D921D921D921C9213971496A3
:100B30001D921D921D921C92179718961D921D9240
:100B40001D921C921B97FE01E75BFF4F10821182E2
:100B500012821382148215821682178210861186E1
:100B600012861386A796BFAFAEAFA797A996FFAF21
:100B7000EEAFA99784E2B497DF01282F1D922A9542
:100B8000E9F7DE0111966D011D928A95E9F7A396AA
:100B9000FFAFEEAFA397A596DFAECEAEA5974CE123
:100BA000842E43E0942E00E010E0A12CB12CE12C27
:100BB000F12CF801E459FD4F2F0185E6282E312C48
:100BC0002C0E3D1E200E311E980128553E4FAB962F
:100BD0003FAF2EAFAB97980124503E4FAD963FAF3D
:100BE0002EAFAD97D2018D919C91E816F906BCF518
:100BF000F101608071806A0C7B1CC701880F991F0E
:100C0000AB96AEADBFADAB97ED91FC91E80FF91F80
:100C10000190F081E02DEE0FFF1FE059FD4FAD96E2
:100C2000AEADBFADAD972D913C91280F391FD901C5
:100C30004D915C91D4016D917D918D919C9101902C
:100C4000F081E02D0995F3016083718382839383A2
:100C5000FFEFEF1AFF0A24E0A20EB11CC3CF0E5F14
:100C60001F4FB4E08B0E911C0430110509F09DCF8D
:100C700086E691E0AD969FAF8EAFAD97A8E7B1E065
:100C8000E196BFAFAEAFE197E0E3F1E0AB96FFAF27
:100C9000EEAFAB97812C912C540125E630E02C0F60
:100CA0003D1F2C5F3F4FE3963FAF2EAFE397AD96CE
:100CB000AEADBFADAD978D919D91AD96BFAFAEAFCF
:100CC000AD97019709F0BAC08FEF9FEFAFE7BFE78D
:100CD000F60180839183A283B383AB96AEADBFADA3
:100CE000AB970D90BC91A02DAF96BFAFAEAFAF97B5
:100CF0008E010B591F4FAF96EEADFFADAF978191AF
:100D00009191AF96FFAFEEAFAF97D6016C90119671
:100D10007C9011971296EC9012971396FC901816EF
:100D2000190684F48150904C880F991F880F991FE1
:100D3000D801ED91FC91E80FF91F208031804280AD
:100D4000538019C0009721F180959095880F991FC5
:100D5000880F991FD801ED91FC91E80FF91F2081B0
:100D600031814281538160E070E080E89FE30E941E
:100D7000A71D1B012C019101A201B301C7010E9413
:100D80000C1E87FD02C031017201C301D70114C0DE
:100D900020E030E040E85FE3B301C7010E940C1E91
:100DA00087FF03C03E2D2F2D04C0612C712C30E82D
:100DB0002FE3C301A32FB22FF60180839183A28377
:100DC000B3830E5F1F4FE3962EAD3FADE39702173F
:100DD000130709F090CFE196AEADBFADE1976D91ED
:100DE0007D918D919D91E196BFAFAEAFE197F601F8
:100DF00020813181428153810E945F1F9B01AC01A0
:100E0000D6016D937D938D939D936D01C501B401C2
:100E10000E94A81D4B015C01AB96EEADFFADAB97F8
:100E20003296AB96FFAFEEAFAB97AD962EAD3FAD22
:100E3000AD972857314009F03ACF81C08FEF9FEF2F
:100E4000AFE7BFEFF60180839183A283B383AB96B4
:100E5000AEADBFADAB970D90BC91A02DAF96BFAF1F
:100E6000AEAFAF978E010B591F4FAF96EEADFFADF2
:100E7000AF9781919191AF96FFAFEEAFAF97D6014B
:100E80006C9011967C9011971296EC901297139695
:100E9000FC901816190684F48150904C880F991F05
:100EA000880F991FD801ED91FC91E80FF91F208060
:100EB00031804280538019C0009711F18095909540
:100EC000880F991F880F991FD801ED91FC91E80FA9
:100ED000F91F208131814281538160E070E080E818
:100EE0009FE30E94A71D1B012C019101A201B301E8
:100EF000C7010E945B1F181684F0310172010DC0FA
:100F000020E030E0A901B301C7010E945B1F181661
:100F100024F0612C712CE12CF12CC301D701F601D6
:100F200080839183A283B3830E5F1F4FE3962EAD20
:100F30003FADE3970217130709F097CF4CCF20E09E
:100F400030E0A901C501B4010E940C1E882341F0C4
:100F500060E070E0CE018F599F4F0E94A30418C03B
:100F6000209108013091090140910A0150910B0133
:100F70006091040170910501809106019091070133
:100F80000E94A81D20E030E040E05FE30E945F1F68
:100F9000609318037093190380931A0390931B03B3
:100FA000CE58DF4F0FB6F894DEBF0FBECDBFDF9136
:100FB000CF911F910F91FF90EF90DF90CF90BF9056
:100FC000AF909F908F907F906F905F904F903F90E9
:100FD0002F9008956AE087E493E00E94771684E4F6
:100FE00093E00E94DD1180912A0390912B0390934E
:100FF0002903809328030895AF92BF92CF92DF9286
:10100000EF92FF920F931F930E941D1900913003DE
:10101000109131032091320330913303601B710B27
:10102000820B930B683E734081059105A0F060919F
:101030002603709127034AE050E080E694E00E9486
:10104000471D0E941D1960933003709331038093F4
:1010500032039093330380E694E00E94591A1816E5
:1010600019067CF580E694E00E94721A8333E1F45D
:1010700080912503813329F48093240384E190E057
:1010800006C0823341F48093240389E190E0909379
:101090002B0380932A0380912A0390912B03909332
:1010A0002903809328030DC08093250380E3809358
:1010B000240310922B0310922A03109229031092FA
:1010C000280380913F04882309F45CC480913E0486
:1010D000882309F457C480914004882309F452C43A
:1010E00080914104882309F44DC4809125038153E4
:1010F000823008F047C40E941D19009134031091FA
:1011000035032091360330913703601B710B820B3E
:10111000930B643671058105910508F433C4809101
:10112000400390914103A0914203B0914303809307
:101130003C0390933D03A0933E03B0933F03009183
:101140003F0410E0109315030093140360914004D2
:1011500070E0709317036093160380913E0490E053
:1011600090931103809310038091410490E0909339
:101170001303809312032091420430E030930F0355
:1011800020930E0380912A0390912B0388309105C0
:1011900009F4BBC1E4F48330910509F41BC14CF49C
:1011A0008130910509F4B0C00CF0CAC0892BE1F17F
:1011B000C7C38530910509F463C10CF44AC1863078
:1011C000910509F470C1079709F480C1B9C38D3046
:1011D000910509F420C354F48B30910509F4DBC266
:1011E0000CF0F8C2099709F42DC2AAC38F309105FB
:1011F00009F466C30CF42DC38031910509F48EC344
:101200008336910509F09CC382E090E09093270318
:10121000809326036AE570E084E493E00E94BE12A6
:1012200084E0809376028CC381E090E09093270362
:101230008093260328E0209376020F3111058CF06D
:10124000909329038093280366E970E084E493E097
:101250000E94BE1262E370E080E090E00E944C19B0
:101260006FC3882777FD8095982F0E94AB1E6093EF
:101270001C0370931D0380931E0390931F03B801FA
:10128000882777FD8095982F0E94AB1E60932003DE
:1012900070932103809322039093230310921803E9
:1012A0001092190310921A0310921B030E947405E6
:1012B000609118037091190380911A0390911B0398
:1012C0000E94781E1F921F921F9226E92F935EE1C3
:1012D000A52EB12CC12CD12C11E2E12EF12C00E075
:1012E00010E02FED3FEF4FEF5FEF0E945F1D709317
:1012F0000B0360930A0384E493E00E94BE120F90F4
:101300000F900F900F901CC36AE570E084E493E0A7
:101310000E94BE1280911603909117034F970CF410
:101320000FC310920D0310920C0382E090E0909393
:1013300029038093280384E493E00E947D1200C374
:1013400080913C0390913D0320910C0330910D035B
:10135000820F931F2091380330913903821B930B26
:1013600090930D0380930C03209125032133C1F446
:101370000F977CF46E3171050CF0E2C265E070E00D
:1013800084E493E00E9477121092290310922803BC
:10139000D7C283E090E0909329038093280315C07F
:1013A000223309F0CDC28830910524F3089709F45F
:1013B000C7C26E3171050CF0C3C283E090E0909318
:1013C0002903809328038093760210920D031092D4
:1013D0000C03B6C280913C0390913D0340910C03F5
:1013E00050910D03840F951F40913803509139039C
:1013F000841B950B90930D0380930C034091250360
:10140000413399F404970CF49BC265E070E084E4E6
:1014100093E00E94771284E08093760210920D038D
:1014200010920C0384E090E026C0423309F088C299
:1014300007970CF485C22E3131050CF481C284E08B
:101440008093760210920D0310920C038BE090E0D3
:1014500012C060E070E084E493E00E94BE1282E07B
:101460008093760280911203909113038D970CF074
:1014700067C285E090E0909329038093280360C2BF
:101480006AE570E084E493E00E94BE1282E08093FB
:101490007602809112039091130383970CF050C24F
:1014A00086E090E0E8CF64EB70E084E493E00E9493
:1014B000BE1282E080937602809112039091130312
:1014C0000F970CF03DC287E090E0D5CF60E070E070
:1014D00084E493E00E94BE1286E0809376028091BD
:1014E0001003909111038031910544F02091120373
:1014F000309113032E3131050CF42BC128E030E07C
:10150000309329032093280324C1882777FD8095F1
:10151000982F0E94AB1E60931C0370931D03809351
:101520001E0390931F03B801882777FD8095982F9D
:101530000E94AB1E609320037093210380932203CB
:1015400090932303109218031092190310921A0318
:1015500010921B030E947405609118037091190387
:1015600080911A0390911B030E94781E1F921F9274
:101570001F922EE12F9336E9A32EB12CC12CD12C32
:1015800011E2E12EF12C00E010E02FED3FEF4FEFE4
:101590005FEF0E945F1D70930B0360930A0384E466
:1015A00093E00E94BE1282E0809376024091740222
:1015B000509175020F900F900F900F902091120391
:1015C0003091130345305105A4F0809110039091A0
:1015D0001103821B930B0196039758F483E690E066
:1015E000909329038093280310927502109274023D
:1015F0000FC02B30310564F489E090E0909329030B
:10160000809328034F5F5F4F50937502409374029D
:101610008091160390911703AC01485051094B304B
:10162000510508F08DC14091140350911503841B9E
:10163000950B0196039708F083C180911003909158
:101640001103A2C0882777FD8095982F0E94AB1EBA
:1016500060931C0370931D0380931E0390931F03DC
:10166000B801882777FD8095982F0E94AB1E609364
:1016700020037093210380932203909323031092FD
:1016800018031092190310921A0310921B030E9460
:101690007405609118037091190380911A03909159
:1016A0001B030E94781E1F921F921F9226E92F9300
:1016B000BEE1AB2EB12CC12CD12C11E2E12EF12CCC
:1016C00000E010E02FED3FEF4FEF5FEF0E945F1D56
:1016D00070930B0360930A0384E493E00E94BE12AC
:1016E00086E08093760240917402509175020F90CB
:1016F0000F900F900F90809110039091110345303F
:101700005105C4F02091120330911303BC01621BF8
:10171000730B9B012F5F3F4F2330310558F423E6B5
:1017200030E0309329032093280310927502109221
:1017300074020FC08B30910564F428E030E03093E0
:101740002903209328034F5F5F4F50937502409306
:1017500074022091160330911703A90148505109D2
:101760004B30510508F0ECC0409114035091150323
:10177000241B350B2F5F3F4F2330310508F0E0C0AD
:101780002091120330911303821B930B0196039750
:1017900008F0D6C0D2C065E070E084E493E00E9417
:1017A000771264EB70E084E493E00E94BE1264EF71
:1017B00071E080E090E00E944C1984E493E00E9484
:1017C0007D1264E670E080E090E00E944C198CE0AD
:1017D00090E051CE80913C0390913D0320910C0309
:1017E00030910D03820F931F2091380330913903FC
:1017F000821B930B90930D0380930C0326E02093A0
:10180000760208970CF49CC010920D0310920C0302
:101810008DE090E030CE65E070E084E493E00E94DB
:1018200077126AE570E084E493E00E94BE1284E0DF
:101830008093760220911403309115038091160352
:1018400090911703821793070CF07AC08EE090E016
:1018500012CE60E070E084E493E00E94BE1264EF78
:1018600071E080E090E00E944C1984E493E00E94D3
:101870007D1264EF71E080E090E00E944C1982E0FC
:101880008093760280913C0390913D0320910C035C
:1018900030910D03820F931F20913803309139034B
:1018A000821B930B90930D0380930C0307970CF40A
:1018B00047C010920D0310920C038FE090E0DBCD37
:1018C00064EF71E080E090E00E944C1965E070E008
:1018D00084E493E00E94771260E070E084E493E097
:1018E0000E94BE1283E0809376022091160330910D
:1018F00017038091140390911503821B930B059697
:101900000B97F0F480910E0390910F03821B930BC1
:1019100002960597A8F480E190E0ADCD6AE570E00D
:1019200084E493E00E94BE1282E08093760280916C
:1019300012039091130340971CF483E690E09BCD33
:10194000809128039091290390932B0380932A037D
:1019500080913C0390913D03A0913E03B0913F03E1
:101960008093380390933903A0933A03B0933B03D9
:101970000E941D19609334037093350380933603DE
:101980009093370380913F04882309F42AC2809101
:101990003E04882309F425C280914004882309F479
:1019A00020C280914104882309F41BC28091240342
:1019B0008153823008F015C20E941D1900912C033A
:1019C00010912D0320912E0330912F03601B710B7A
:1019D000820B930B643671058105910508F401C2F1
:1019E0008091400390914103A0914203B091430341
:1019F00080933C0390933D03A0933E03B0933F0339
:101A000000913F0410E010931503009314036091BC
:101A1000400470E0709317036093160380913E04B6
:101A200090E090931103809310032091410430E0E3
:101A3000309313032093120380912A0390912B0378
:101A40008831910509F484C07CF485319105D9F180
:101A50001CF4449771F1A3C18631910509F44BC080
:101A6000479709F45BC09BC18B31910509F435C1DF
:101A700044F48931910509F402C14A9709F409C176
:101A80008EC18E31910509F47EC08336910509F02F
:101A900086C182E090E090932703809326036AE555
:101AA00070E084E493E00E94BE1284E080937602AA
:101AB00076C182E080937602293031050CF06FC147
:101AC00085E190E013C085E08093760264EB70E0DE
:101AD00084E493E00E94BE12809110039091110360
:101AE0000B97CB9708F45BC186E190E090932903B4
:101AF0008093280354C182E08093760260E070E016
:101B000084E493E00E94BE1280911203909113032B
:101B100040970CF044C187E190E0E8CF6EE670E0BA
:101B200084E493E00E94BE1286E080937602809166
:101B300012039091130383970CF431C18091140325
:101B40009091150383970CF42AC188E190E0CECFE1
:101B500060E070E084E493E00E94BE12809116037E
:101B60009091170320911403309115038A31910548
:101B700034F42A3131051CF48EE190E0B7CF821B9A
:101B8000930B019670C084E493E00E9423138111AB
:101B900006C065E070E084E493E00E9477126091F3
:101BA000160370911703882777FD8095982F0E9460
:101BB000AB1E60931C0370931D0380931E039093D0
:101BC0001F036091140370911503882777FD80959A
:101BD000982F0E94AB1E6093200370932103809383
:101BE000220390932303109218031092190310926A
:101BF0001A0310921B030E947405609118037091E0
:101C0000190380911A0390911B030E94781E1F9262
:101C10001F921F9226E92F93FEE1AF2EB12CC12C0B
:101C2000D12C11E2E12EF12C00E010E02FED3FEF7E
:101C30004FEF5FEF0E945F1D70930B0360930A03E9
:101C400084E493E00E94BE128091140390911503E6
:101C50002091160330911703821B930B01960F906E
:101C60000F900F900F90039708F099C08091120386
:101C7000909113038A3591050CF491C08DC088E0D2
:101C800080937602293131050CF489C08AE190E015
:101C90002DCF84E493E00E942313811106C065E0F8
:101CA00070E084E493E00E94771260E070E084E4E6
:101CB00093E00E94BE128091140390911503409707
:101CC0000CF06DC080911203909113038035910543
:101CD0000CF465C08BE190E009CF882777FD8095F3
:101CE000982F0E94AB1E60931C0370931D0380937A
:101CF0001E0390931F03B801882777FD8095982FC6
:101D00000E94AB1E609320037093210380932203F3
:101D100090932303109218031092190310921A0340
:101D200010921B030E9474056091180370911903AF
:101D300080911A0390911B030E94781E1F921F929C
:101D40001F9226E92F935EE1A52EB12CC12CD12C38
:101D500011E2E12EF12C00E010E02FED3FEF4FEF0C
:101D60005FEF0E945F1D70930B0360930A0384E48E
:101D700093E00E94BE12809114039091150320916C
:101D8000160330911703821B930B01960F900F904F
:101D90000F900F90039718F483E690E0A7CE809100
:101DA00028039091290390932B0380932A03809119
:101DB0003C0390913D03A0913E03B0913F0380937B
:101DC000380390933903A0933A03B0933B030E94E6
:101DD0001D1960932C0370932D0380932E03909311
:101DE0002F031F910F91FF90EF90DF90CF90BF9046
:101DF000AF9008958091870390E020918803821B23
:101E0000910908952091880380918703281750F441
:101E1000E22FF0E0E757FC4F808190E02F5F2093A6
:101E2000880308958FEF9FEF0895E09188038091D4
:101E30008703E81730F4F0E0E757FC4F808190E02B
:101E400008958FEF9FEF08950895CF92DF92EF925C
:101E5000FF920F931F93CF93DF937C01CB018A01F5
:101E600020916403222389F0EB016B01C40ED51E7F
:101E7000CC15DD0569F06991D701ED91FC910190D8
:101E8000F081E02DC7010995F3CF642F0E94950FD3
:101E9000C801DF91CF911F910F91FF90EF90DF90DC
:101EA000CF900895CF93DF931F92CDB7DEB76983AC
:101EB000209164032223D1F020916503203240F069
:101EC00021E030E0FC013383228380E090E015C004
:101ED00080916603E82FF0E0E959FC4F99819083E7
:101EE0008F5F809366038093650305C061E0CE0138
:101EF00001960E94950F81E090E00F90DF91CF91C5
:101F00000895FC011382128248EE53E060E070E015
:101F1000448355836683778380ED92E09183808349
:101F2000089588E593E00C94810F613298F4209134
:101F30001604243089F46093CB03FC018DEC93E00C
:101F4000DC012A2F281B261718F421912D93F9CF95
:101F500080E0089581E0089582E0089585ED809302
:101F6000BC008091BC0084FDFCCF10921604089543
:101F700085EC8093BC001092160408951F920F9276
:101F80000FB60F9211242F933F934F935F936F934C
:101F90007F938F939F93AF93BF93EF93FF93809122
:101FA000B900887F803609F49EC078F5883209F43C
:101FB0005DC090F4803109F456C038F4882309F4E8
:101FC000F5C0883009F44FC0F5C0883109F44EC01F
:101FD000803209F45FC0EEC0803409F46AC058F45E
:101FE000803309F457C0883309F0E4C08093A90313
:101FF0000E94B80FDFC0803509F44FC0883509F45E
:102000005DC0883409F0D6C0D3C0883909F4C4C093
:10201000A8F4883709F467C038F4883609F463C037
:10202000803709F460C0C6C0883809F4B5C080396B
:1020300009F45FC0803809F0BDC05BC0803B09F483
:1020400083C038F4803A09F466C0883A09F47CC049
:10205000B1C0803C09F4A4C0883C09F4A1C0883B0D
:1020600009F487C0A7C08091150410C09091EE03B9
:102070008091ED03981770F5E091EE0381E08E0FEB
:102080008093EE03F0E0E151FC4F80818093BB0030
:1020900085EC83C08093A9038BC0E091EE0381E0BF
:1020A0008E0F8093EE038091BB00F0E0E151FC4F76
:1020B00080839091EE038091ED036BC0E091EE037D
:1020C00081E08E0F8093EE038091BB00F0E0E15140
:1020D000FC4F80838091140481116AC081E0809359
:1020E000130484EA5EC083E0809316041092AA036E
:1020F000CFCF8091AA03803208F04EC0E091AA03AE
:1021000081E08E0F8093AA038091BB00F0E0E5553B
:10211000FC4F8083BDCF0E94B80F8091AA0380320C
:1021200030F4E091AA03F0E0E555FC4F1082609195
:10213000AA0370E0E0910F04F09110048BEA93E0A1
:1021400009951092AA0336C084E080931604109279
:10215000CC031092CB03E0911104F0911204099585
:102160008091CB03811105C081E08093CB03109255
:10217000CD03E091CC0381E08E0F8093CC03F0E09F
:10218000E353FC4F80818093BB009091CC038091FE
:10219000CB03981708F47CCF85E88093BC000AC075
:1021A00085EC8093BC001092160404C01092A90321
:1021B0000E94AE0FFF91EF91BF91AF919F918F91D0
:1021C0007F916F915F914F913F912F910F900FBE33
:1021D0000F901F901895CF93CFB7F8948091170464
:1021E000811127C0EEEBF0E08491EAEAF0E09491EF
:1021F000E82FF0E0EE0FFF1FEE52FF4FA591B491D4
:102200008C91892321F461E08AE00E94231A61E025
:102210008AE00E94EA198CB580618CBD8CB580641F
:102220008CBD61E08DE00E94EA1961E08BE00E94C4
:10223000EA19809117048F5F80931704CFBFCF9165
:1022400008951F920F920FB60F9211242F933F9370
:102250004F935F936F937F938F939F93AF93BF93AE
:10226000EF93FF938091190487FF05C010928500BA
:10227000109284001AC020911904332727FD30954D
:102280008091180490E0281739077CF48091190494
:10229000992787FD9095FC01EE0FFF1FE80FF91FAE
:1022A000E65EFB4F808186FD15C0809119048F5F2B
:1022B0008093190420911904332727FD30958091CC
:1022C000180490E028173907BCF4809119048C3069
:1022D0005CF112C080911904992787FD9095FC014B
:1022E000EE0FFF1FE80FF91FE65EFB4F808160E0F5
:1022F0008F730E94231AD9CF80918400909185001A
:10230000049680349C4918F480E49CE905C08091CF
:1023100084009091850004969093890080938800B2
:102320008FEF8093190438C020918400309185008C
:1023300080911904992787FD9095FC01EE0FFF1FEE
:10234000E80FF91FE65EFB4F81819281820F931F98
:10235000909389008093880080911904992787FDC4
:102360009095FC01EE0FFF1FE80FF91FE65EFB4F93
:10237000808186FF11C080911904992787FD90956F
:10238000FC01EE0FFF1FE80FF91FE65EFB4F808197
:1023900061E08F730E94231AFF91EF91BF91AF917B
:1023A0009F918F917F916F915F914F913F912F916D
:1023B0000F900FBE0F901F901895209118042C308D
:1023C000A0F431E0320F30931804FC012083822FF7
:1023D00090E0FC01EE0FFF1FE80FF91FE65EFB4FD8
:1023E00088EB9BE09283818308952FEFFC0120838B
:1023F0000895DF92EF92FF920F931F93CF93DF9395
:10240000EC01D62E7A01890188818C3008F066C0F3
:1024100061E08D2D0E94EA198881A82FB0E0FD01AE
:10242000EE0FFF1FEA0FFB1FE65EFB4F2D2D2F73F4
:102430009081907C922B908360E272E06E197F090C
:1024400077FF02C06D5F7F4F7595679575956795AE
:10245000698340E659E0401B510B57FF02C04D5FB6
:102460005F4F55954795559547954A836CE00E9477
:10247000D21F9CE0899FB001112420E030E0A90127
:10248000460F571FFA01EE0FFF1FE40FF51FE65E20
:10249000FB4F908196FD16C02F5F3F4F2C303105CA
:1024A00071F781110FC01092800082E0809381004B
:1024B0001092850010928400B19A80916F00826022
:1024C00080936F00888190E0FC01EE0FFF1FE80F02
:1024D000F91FE65EFB4F8081806480838881DF91F5
:1024E000CF911F910F91FF90EF90DF90089520E61C
:1024F00039E040E252E00C94F911FC01808190E057
:10250000FC01EE0FFF1FE80FF91FE65EFB4F808115
:102510008F7B80830895FC0180818C3070F59181E0
:1025200028E830E0291B310997FD3395220F331F2E
:10253000220F331F621773077CF0928128E532E087
:10254000291B310997FD3395220F331F220F331FAB
:10255000621773070CF49B0122503109220F331FBD
:102560004FB7F89490E0FC01EE0FFF1FE80FF91F42
:10257000E65EFB4F328321834FBF08954F925F92F7
:102580006F927F92AF92BF92CF92DF92EF92FF92C3
:102590000F931F93CF93DF93EC01603282E07807B3
:1025A0000CF040C077FD06C0653B71052CF064EB74
:1025B00070E002C060E070E0898128E830E0281B0C
:1025C000310987FD3395220F331F220F331F590125
:1025D000CC24B7FCC094DC2C882777FD8095982FFD
:1025E0002A8148E552E0421B510927FD5395440FCB
:1025F000551F440F551F2A01662457FC6094762C02
:102600007F926F925F924F9214EBE12EF12C00E0DB
:1026100010E020E030E0A9010E945F1D0F900F90B4
:102620000F900F90CE01DF91CF911F910F91FF90EE
:10263000EF90DF90CF90BF90AF907F906F905F90C2
:102640004F900C948B12FC01808190E0FC01EE0F06
:10265000FF1FE80FF91FE65EFB4F808186FB88278E
:1026600080F908958EBD00000DB407FEFDCF8EB534
:102670000895CF93DF93EC0160E088890E94231ACC
:1026800080EC0E94321361E088890E94231A6AE07C
:1026900070E080E090E0DF91CF910C944C191F9393
:1026A000CF93DF93EC01162F60E088890E94231AF4
:1026B00083E00E943213812F0E94321380E00E9437
:1026C0003213182F61E088890E94231A812FDF912D
:1026D000CF911F910895CF92DF92EF92FF920F93C7
:1026E0001F93CF93DF9300D0CDB7DEB78C01F62ECA
:1026F000E22E60E0FC01808949835A830E94231AFC
:1027000083E00E9432138F2D0E9432134981C42E20
:102710005A81D52EF12CFE1459F0F8E0FF1641F045
:1027200080E00E943213F60181936F01F394F3CF9E
:1027300061E0F80180890F900F90DF91CF911F9198
:102740000F91FF90EF90DF90CF900C94231AEF92AF
:10275000FF921F93CF93DF931F92CDB7DEB77C011B
:10276000162F60E0FC01808949830E94231A82E0D1
:102770000E943213812F0E9432134981842F0E94BC
:10278000321361E0F70180890F90DF91CF911F91A3
:10279000FF90EF900C94231ACF92DF92EF92FF926A
:1027A0000F931F93CF93DF9300D0CDB7DEB78C018B
:1027B000E62EF22E60E0FC01808949835A830E9454
:1027C000231A82E00E9432138E2D0E943213498117
:1027D000E42EC42E5A81D52E8C2D8E198F1530F4EF
:1027E000F60181916F010E943213F6CF61E0F8018A
:1027F00080890F900F90DF91CF911F910F91FF90E3
:10280000EF90DF90CF900C94231AEF92FF921F93DA
:10281000CF93DF9300D0CDB7DEB77C01162F60E0F9
:10282000FC0180892A8349830E94231A85E00E9443
:102830003213812F0E9432134981842F0E94321358
:102840002A81822F0E94321361E0F70180890F9064
:102850000F90DF91CF911F91FF90EF900C94231A6E
:102860001F93CF93DF93EC0160E088890E94231AC5
:1028700080EA0E94321380E00E943213182F61E038
:1028800088890E94231A812FDF91CF911F9108958B
:102890001F93CF93DF93EC01162F262F40EE6FE0AE
:1028A0000E9405146FE0CE010E944F13982F907E76
:1028B00081E0911301C080E0DF91CF911F910895D5
:1028C0000F931F93CF93DF93EC01462F50E0FA0153
:1028D0003197E231F105D8F5EC5CFF4F0C941F20E5
:1028E00017E80FEF05C017E00AEB02C015E801EF8B
:1028F0004FE036C017E00EEB49E032C017E80FEFAB
:1029000002C017E80AEF47E02BC017E80FEF0BC033
:1029100017E00EEB08C017E00DEA05C017E80AEF54
:1029200002C016E800EF43E01BC017E80AEF41E0E1
:1029300017C015E801EF41E413C016E800EF05C029
:1029400014E000EA02C012E800ED40E009C081E0B6
:1029500016C017E80FEF4FE303C017E80FEF4FE182
:102960006AE2CE010E94A713402F69E2CE010E94C5
:10297000A713412F68E2CE010E94A71380E0DF91E8
:10298000CF911F910F9108951F93CF93DF93EC0187
:1029900010E340E0612FCE010E94A71360E1610FB8
:1029A00040E0CE010E94A71360E2610F40E0CE013B
:1029B0000E94A7131F5F1E3361F740E060E6CE015F
:1029C0000E94A71340E060E7CE01DF91CF911F91F5
:1029D0000C94A7130F931F93CF93DF93EC01062F53
:1029E0000E94391360E8CE010E944814182F6AE053
:1029F00070E080E090E011110CC00E944C19602F33
:102A0000CE010E946014882339F06AE070E080E013
:102A100090E00E944C1928C06AE070E080E090E0ED
:102A20000E944C19CE010E94C41443E06BE2CE0117
:102A30000E94A71324E044E660E6CE010E9405143C
:102A400020E040E660E7CE010E94051460E0CE0180
:102A50000E944814C82F8823C1F26AE070E080E029
:102A600090E00E944C191C2F812FDF91CF911F9174
:102A70000F9108950F931F93CF93DF9300D000D051
:102A8000CDB7DEB74130B1F40C831B838901222717
:102A90003327502F5C71402F437078E0579F400DD3
:102AA000112448604A8355E0169507955A95E1F739
:102AB00009830DC0A80123E0569547952A95E1F7B3
:102AC00049830295000F007E0A831C821B8224E04A
:102AD000AE014F5F5F4F0E94CC130F900F900F908D
:102AE0000F90DF91CF911F910F910895EF92FF9278
:102AF0000F931F93CF93DF9300D000D0CDB7DEB7F5
:102B00007A018901FA011082F90110821182128280
:102B1000138224E0AE014F5F5F4F0E946B132A8146
:102B20003981822F90E045E0959587954A95E1F7A8
:102B3000F8E03F9F800D911D1124AA2797FDA095D5
:102B4000BA2FF80180839183A283B38323FF25C02A
:102B500062E0880F991FAA1FBB1F6A95D1F72370E7
:102B6000820F911DA11DB11DBA2FA92F982F882763
:102B70002B81820F911DA11DB11DBA2FA92F982F56
:102B800088272C81820F911DA11DB11D8083918307
:102B9000A283B38381E0F70180830F900F900F90A1
:102BA0000F90DF91CF911F910F91FF90EF900895BB
:102BB000FF920F931F93CF93DF93EC01F62EAC019E
:102BC0004A5F5F4F65E06F0D2D810E94CC138E85AB
:102BD000813019F48D8180648D8364E06F0D4D81A7
:102BE000CE010E94A71309811A812B813C81488163
:102BF0006F2DCE010E943A15DF91CF911F910F9159
:102C0000FF9008950F931F93CF93DF93EC01162F3E
:102C10009C012F5F3F4FAC010E9476156FEF610F53
:102C2000CE010E944F13082F64E0610FCE010E9475
:102C30004F13282F8D8303FF03C081E08E8701C0CF
:102C40001E862F702D83AE014A5F5F4F65E0610FD6
:102C5000CE01DF91CF911F910F910C946B136150B6
:102C600028E048E00C9405149F92AF92BF92CF9257
:102C7000DF92EF92FF920F931F93CF93DF9300D0D9
:102C80001F92CDB7DEB76C017B0180E3898380E4BE
:102C90008A8380E58B83FB0110828E010F5F1F4FBB
:102CA0005E01F4E0AF0EB11CF80191908F01692D27
:102CB000C6010E944F13982F987083FD04C093940F
:102CC000F701908204C00A151B0571F792E0892F65
:102CD0000F900F900F90DF91CF911F910F91FF9068
:102CE000EF90DF90CF90BF90AF909F900895CF93DB
:102CF000DF93EC01862F688B61E00E94EA1961E0A6
:102D00008889DF91CF910C94231ACF93DF9300D061
:102D10001F92CDB7DEB76B8389839A830E94EB1035
:102D20006B8189819A810E94EA1491E0811101C02E
:102D300090E0892F0F900F900F90DF91CF91089521
:102D4000CF92DF92EF920F931F93CF93DF93FC010B
:102D500020834183528363837483093008F008E041
:102D60000583E686D60180E090E010E080179107A9
:102D70003CF42D91EF01C80FD91F2E830196F6CF99
:102D800080E0DF91CF911F910F91EF90DF90CF9076
:102D90000895CF92DF92EF92FF920F936701E12C9B
:102DA0000E94A0160F91FF90EF90DF90CF900895B2
:102DB000EF92FF920F931F93CF93DF931F92CDB7A4
:102DC000DEB78C01E12CF12CBE016F5F7F4FC80193
:102DD0000E9434169FEFE91AF90A823029F482E33F
:102DE000E816F10489F724C092E3E916F10401F131
:102DF0006981C8010E94D8156981C8010E942F16F7
:102E0000E12CF12C8FEFE81AF80A69816150C801B2
:102E10000E944F1383FF06C092E3E916F10491F775
:102E200087E007C082E3E816F104D1F380E001C037
:102E300086E00F90DF91CF911F910F91FF90EF905F
:102E40000895EF92FF920F93CF93DF93EC010E94CE
:102E5000C916CE01DF91CF910F91FF90EF900C94A6
:102E6000D816CF93DF93EC010E94301480FF07C087
:102E700061E6CE010E94021620E041E008C081FF19
:102E80000CC061E7CE010E94021620E042E06CE235
:102E9000CE010E94051480E001C084E0DF91CF9153
:102EA0000895EF92FF920F931F93CF93DF9300D07B
:102EB000CDB7DEB77C018B0149835A830E9431175D
:102EC00049815A81811118C0D70115969C91F8014A
:102ED0009083FA0120E030E0D70115964C9150E044
:102EE000241735075CF4D701A20FB31F16969C91E7
:102EF00091932F5F3F4FF0CFF80110820F900F900A
:102F0000DF91CF911F910F91FF90EF9008950E9454
:102F10003014837011F083E0089584E00895FC017B
:102F200061817281838194810895909145049F5FAE
:102F300090934504809144048F5F809344049A30B9
:102F400041F49091430491609460909343041092F3
:102F50004504843639F480914304826080934304AD
:102F6000109244040C943E18089562E083E00E949D
:102F7000EA1961E089E00E94EA1961E088E00E94B4
:102F8000EA1961E087E00E94EA1961E086E00E94A8
:102F9000EA1961E085E00C94EA19A0EBB0E01C921C
:102FA000E1EBF0E010821092B2008FEF8093B3005B
:102FB0008C9182608C93808184608083E0E7F0E074
:102FC00080818260808308950E94B5170C94CD178C
:102FD000EF92FF920F93CF93DF93CDB7DEB7619758
:102FE0000FB6F894DEBF0FBECDBF198ACE01019691
:102FF0007C0188E0F70111928A95E9F781E08A83E4
:1030000082E08B8380917602898386E494E00E943B
:1030100087178330E9F4AE01475F5F4FBE016F5EF3
:103020007F4F86E494E00E94511786E494E00E946A
:103030008F17898580933E048A8580933F048B8512
:10304000809340048C85809341048D858093420455
:1030500008E020E041E050E060E070E086E494E0C9
:103060000E94211761960FB6F894DEBF0FBECDBF48
:10307000DF91CF910F91FF90EF90089580914304DD
:1030800083FD1CC08860809343048091430480FFCB
:1030900006C00E94E817809143048E7F09C081FF1B
:1030A00002C08D7F05C082FF02C08B7F01C0877F79
:1030B000809343048091430483FDE7CF08956AE041
:1030C00086E494E00C94771608958230E8F4E82FB3
:1030D000F0E0EE0FFF1FE958FD4F718360838130F0
:1030E00041F0809169008C7F842B80936900E89A7D
:1030F000089580916900440F551F440F551F837F29
:10310000842B80936900E99A08951F920F920FB65D
:103110000F9211242F933F934F935F936F937F935D
:103120008F939F93AF93BF93EF93FF93E0917702B9
:10313000F09178020995FF91EF91BF91AF919F9126
:103140008F917F916F915F914F913F912F910F9050
:103150000FBE0F901F9018951F920F920FB60F92EF
:1031600011242F933F934F935F936F937F938F938C
:103170009F93AF93BF93EF93FF93E0917902F09108
:103180007A020995FF91EF91BF91AF919F918F9135
:103190007F916F915F914F913F912F910F900FBE53
:1031A0000F901F9018951F920F920FB60F92112437
:1031B0002F933F938F939F93AF93BF938091580426
:1031C00090915904A0915A04B0915B043091570436
:1031D00023E0230F2D3720F40196A11DB11D05C05A
:1031E00026E8230F0296A11DB11D2093570480935A
:1031F000580490935904A0935A04B0935B048091AF
:103200005C0490915D04A0915E04B0915F0401960E
:10321000A11DB11D80935C0490935D04A0935E0496
:10322000B0935F04BF91AF919F918F913F912F9188
:103230000F900FBE0F901F9018952FB7F8946091C4
:1032400058047091590480915A0490915B042FBFE7
:1032500008953FB7F89480915C0490915D04A0912B
:103260005E04B0915F0426B5A89B05C02F3F19F0FE
:103270000196A11DB11D3FBF6627782F892F9A2F78
:10328000620F711D811D911D42E0660F771F881F1F
:10329000991F4A95D1F708958F929F92AF92BF924E
:1032A000CF92DF92EF92FF926B017C010E9429196D
:1032B0004B015C01C114D104E104F104F1F00E945E
:1032C000A61D0E942919681979098A099B09683E77
:1032D00073408105910570F321E0C21AD108E1081D
:1032E000F10888EE880E83E0981EA11CB11CC11461
:1032F000D104E104F10429F7DDCFFF90EF90DF90D6
:10330000CF90BF90AF909F908F900895789484B5A0
:10331000826084BD84B5816084BD85B5826085BDD1
:1033200085B5816085BDEEE6F0E0808181608083B7
:10333000E1E8F0E01082808182608083808181609A
:103340008083E0E8F0E0808181608083E1EBF0E061
:10335000808184608083E0EBF0E080818160808305
:10336000EAE7F0E0808184608083808182608083EE
:103370008081816080838081806880831092C10019
:103380000895833081F028F4813099F08230A1F0E3
:1033900008958730A9F08830B9F08430D1F4809155
:1033A00080008F7D03C0809180008F7780938000A4
:1033B000089584B58F7702C084B58F7D84BD08954C
:1033C0008091B0008F7703C08091B0008F7D809393
:1033D000B0000895CF93DF9390E0FC01E056FF4FDB
:1033E0002491FC01EC54FF4F8491882349F190E033
:1033F000880F991FFC01EE52FF4FA591B49188539D
:103400009F4FFC01C591D4919FB7611108C0F894FA
:103410008C91209582238C93888182230AC062300C
:1034200051F4F8948C91322F309583238C938881BA
:10343000822B888304C0F8948C91822B8C939FBF3D
:10344000DF91CF9108950F931F93CF93DF931F9236
:10345000CDB7DEB7282F30E0F901E457FF4F849154
:10346000F901E056FF4F1491F901EC54FF4F04911C
:103470000023C9F0882321F069830E94C119698162
:10348000E02FF0E0EE0FFF1FE853FF4FA591B4913E
:103490009FB7F8948C91611103C01095812301C0EE
:1034A000812B8C939FBF0F90DF91CF911F910F9134
:1034B0000895FC01818D228D90E0805C9F4F821BDE
:1034C00091098F7399270895FC01918D828D98172A
:1034D00031F0828DE80FF11D858D90E008958FEF1A
:1034E0009FEF0895FC01918D828D981761F0828D78
:1034F000DF01A80FB11D5D968C91928D9F5F9F7328
:10350000928F90E008958FEF9FEF089586EF9BE1F3
:10351000892B49F080E090E0892B29F00E94F61B6E
:1035200081110C9400000895FC01848DDF01A80F27
:10353000B11DA35ABF4F2C91848D90E001968F73DB
:103540009927848FA689B7892C93A089B1898C91FA
:1035500080648C93938D848D981306C00288F389C0
:10356000E02D80818F7D80830895CF93DF93EC01E0
:10357000888D8823C9F0EA89FB89808185FD05C093
:10358000A889B9898C9186FD0FC00FB607FCF5CFCD
:10359000808185FFF2CFA889B9898C9185FFEDCF15
:1035A000CE010E94941AE7CFDF91CF910895CF9278
:1035B000DF92FF920F931F93CF93DF931F92CDB7AC
:1035C000DEB76C0181E0D60158968C9358975B96D4
:1035D0009C915B975C968C915C97981307C0509672
:1035E000ED91FC915197808185FD2EC0F601038DF0
:1035F00010E00F5F1F4F0F731127F02EF601848D1F
:10360000F81211C00FB607FCF9CFD6015096ED9114
:10361000FC915197808185FFF1CFC60169830E949B
:10362000941A6981EBCF838DE80FF11DE35AFF4FA8
:103630006083D6015B960C935B975296ED91FC915B
:103640005397808180620CC0D6015696ED91FC9113
:10365000579760835096ED91FC91519780818064DB
:10366000808381E090E00F90DF91CF911F910F91C7
:10367000FF90DF90CF900895BF92CF92DF92EF92AC
:10368000FF92CF93DF93EC016A017B01B22EE889B0
:10369000F98982E08083411581EE58076105710543
:1036A000A1F060E079E08DE390E0A70196010E942F
:1036B000DE1F21503109410951095695479537952B
:1036C0002795211580E1380798F0E889F98910825B
:1036D00060E874E88EE190E0A70196010E94DE1F89
:1036E000215031094109510956954795379527953C
:1036F000EC85FD853083EE85FF852083188EEC896F
:10370000FD89B082EA89FB89808180618083EA89B2
:10371000FB89808188608083EA89FB898081806859
:103720008083EA89FB8980818F7D8083DF91CF91BF
:10373000FF90EF90DF90CF90BF9008951F920F926F
:103740000FB60F9211242F938F939F93EF93FF93B4
:10375000E0917004F09171048081E0917604F09121
:10376000770482FD12C09081809179048F5F8F73FE
:1037700020917A04821751F0E0917904F0E0E05A48
:10378000FB4F958F8093790401C08081FF91EF9169
:103790009F918F912F910F900FBE0F901F901895B2
:1037A0001F920F920FB60F9211242F933F934F93B6
:1037B0005F936F937F938F939F93AF93BF93EF9399
:1037C000FF9380E694E00E94941AFF91EF91BF91DD
:1037D000AF919F918F917F916F915F914F913F91A9
:1037E0002F910F900FBE0F901F90189580E694E0D8
:1037F0000E94591A21E0892B09F420E0822F0895B4
:10380000109263041092620488EE93E0A0E0B0E0AE
:103810008093640490936504A0936604B093670456
:1038200080EE92E0909361048093600485EC90E0D8
:1038300090936D0480936C0484EC90E090936F04FB
:1038400080936E0480EC90E09093710480937004F8
:1038500081EC90E0909373048093720482EC90E08A
:10386000909375048093740486EC90E090937704B1
:10387000809376041092790410927A0410927B045B
:1038800010927C04089508950E9486190E94431C9A
:103890000E94E402C6E8DAE10E94FC072097E1F307
:1038A0000E94861AF9CFCF92DF92EF92FF920F9388
:1038B0001F93CF93DF937C016A01EB0100E010E0DE
:1038C0000C151D0571F06991D701ED91FC910190E6
:1038D000F081E02DC7010995892B19F00F5F1F4F6B
:1038E000EFCFC801DF91CF911F910F91FF90EF9023
:1038F000DF90CF9008956115710581F0DB010D9087
:103900000020E9F7AD0141505109461B570BDC017E
:10391000ED91FC910280F381E02D099480E090E02C
:103920000895DC01ED91FC910190F081E02D099466
:103930006CEE72E00C947B1C0F931F93CF93DF937C
:10394000EC010E947B1C8C01CE010E94981C800F10
:10395000911FDF91CF911F910F9108958F929F92A8
:10396000AF92BF92DF92EF92FF920F931F93CF938C
:10397000DF93CDB7DEB7A1970FB6F894DEBF0FBEC9
:10398000CDBF7C01F42FD52ECB0119A2223008F433
:103990002AE08E010F5D1F4F822E912CA12CB12C9D
:1039A0006F2F7D2DA50194010E94DE1FF22FD32ED3
:1039B000CA01015011096A3014F4E0E301C0E7E3E1
:1039C000E60FD801EC93232B242B252B49F7B801C4
:1039D000C7010E947B1CA1960FB6F894DEBF0FBEF4
:1039E000CDBFDF91CF911F910F91FF90EF90DF90AE
:1039F000BF90AF909F908F900895CF92DF92EF92FB
:103A0000FF920F931F93CF93DF93EC016A017B0129
:103A10002115310579F4E881F9810190F081E02DDB
:103A2000642FDF91CF911F910F91FF90EF90DF9066
:103A3000CF9009942A303105E9F477FF1AC06DE27E
:103A40000E94911C8C0144275527BA014C195D092D
:103A50006E097F092AE0CE010E94AE1C800F911FE3
:103A6000DF91CF911F910F91FF90EF90DF90CF905A
:103A700008952AE0B701A601CE01DF91CF911F91F1
:103A80000F91FF90EF90DF90CF900C94AE1C0F93AE
:103A90001F93CF93DF93EC019A01AB01662757FD8B
:103AA0006095762F0E94FD1C8C01CE010E94981C0F
:103AB000800F911FDF91CF911F910F9108954F9229
:103AC0005F926F927F92AF92BF92CF92DF92EF920E
:103AD000FF920F931F93CF93DF93CDB7DEB72901EA
:103AE0003A01621B730B840B950B29893A894B8928
:103AF0005C892A193B094C095D09298B3A8B4B8B50
:103B00005C8B9B01AC0169897A898B899C890E94B5
:103B1000C21FE418F50806091709A80197010E94B9
:103B200000202A0D3B1D4C1D5D1DCA01B901DF910E
:103B3000CF911F910F91FF90EF90DF90CF90BF90AA
:103B4000AF907F906F905F904F9008950895505878
:103B5000BB27AA270ED075C166D130F06BD120F0FB
:103B600031F49F3F11F41EF45BC10EF4E095E7FBC6
:103B700051C1E92F77D180F3BA1762077307840721
:103B8000950718F071F49EF58FC10EF4E0950B2E99
:103B9000BA2FA02D0B01B90190010C01CA01A0019F
:103BA0001124FF27591B99F0593F50F4503E68F1FA
:103BB0001A16F040A22F232F342F4427585FF3CF3B
:103BC000469537952795A795F0405395C9F77EF40C
:103BD0001F16BA0B620B730B840BBAF09150A1F055
:103BE000FF0FBB1F661F771F881FC2F70EC0BA0FDB
:103BF000621F731F841F48F4879577956795B79563
:103C0000F7959E3F08F0B3CF9395880F08F099275A
:103C1000EE0F979587950895D9D008F481E008951F
:103C20000CD00FC107D140F0FED030F021F45F3F3F
:103C300019F0F0C0511139C1F3C014D198F3992390
:103C4000C9F35523B1F3951B550BBB27AA27621760
:103C50007307840738F09F5F5F4F220F331F441FA5
:103C6000AA1FA9F333D00E2E3AF0E0E830D09150DD
:103C70005040E695001CCAF729D0FE2F27D0660FCA
:103C8000771F881FBB1F261737074807AB07B0E809
:103C900009F0BB0B802DBF01FF2793585F4F2AF01F
:103CA0009E3F510568F0B6C000C15F3FECF3983EFF
:103CB000DCF3869577956795B795F7959F5FC9F77C
:103CC000880F911D9695879597F90895E1E0660F05
:103CD000771F881FBB1F621773078407BA0720F07E
:103CE000621B730B840BBA0BEE1F88F7E0950895E7
:103CF00004D06894B111D9C00895BCD088F09F5702
:103D000090F0B92F9927B751A0F0D1F0660F771F27
:103D1000881F991F1AF0BA95C9F712C0B13081F007
:103D2000C3D0B1E00895C0C0672F782F8827B85F4F
:103D300039F0B93FCCF3869577956795B395D9F768
:103D40003EF490958095709561957F4F8F4F9F4F72
:103D50000895E89409C097FB3EF49095809570957E
:103D600061957F4F8F4F9F4F9923A9F0F92F96E9C7
:103D7000BB279395F695879577956795B795F1113C
:103D8000F8CFFAF4BB0F11F460FF1BC06F5F7F4FD9
:103D90008F4F9F4F16C0882311F096E911C07723EB
:103DA00021F09EE8872F762F05C0662371F096E8F4
:103DB000862F70E060E02AF09A95660F771F881FC3
:103DC000DAF7880F9695879597F90895990F000867
:103DD000550FAA0BE0E8FEEF16161706E807F907DD
:103DE000C0F012161306E407F50798F0621B730B78
:103DF000840B950B39F40A2661F0232B242B252BF9
:103E000021F408950A2609F4A140A6958FEF811D9B
:103E1000811D089597F99F6780E870E060E008953C
:103E20009FEF80EC089500240A94161617061806D2
:103E30000906089500240A941216130614060506AE
:103E40000895092E0394000C11F4882352F0BB0F3F
:103E500040F4BF2B11F460FF04C06F5F7F4F8F4FA2
:103E60009F4F089557FD9058440F551F59F05F3FDD
:103E700071F04795880F97FB991F61F09F3F79F08C
:103E800087950895121613061406551FF2CF46950E
:103E9000F1DF08C0161617061806991FF1CF869590
:103EA0007105610508940895E894BB276627772774
:103EB000CB0197F908958ADF08F48FEF08950BD0AE
:103EC000C0CFB1DF28F0B6DF18F0952309F0A2CFFC
:103ED000A7CF1124EACFC6DFA0F3959FD1F3950FAA
:103EE00050E0551F629FF001729FBB27F00DB11D7E
:103EF000639FAA27F00DB11DAA1F649F6627B00D0E
:103F0000A11D661F829F2227B00DA11D621F739FF6
:103F1000B00DA11D621F839FA00D611D221F749F04
:103F20003327A00D611D231F849F600D211D822F4B
:103F3000762F6A2F11249F5750408AF0E1F0882392
:103F40004AF0EE0FFF1FBB1F661F771F881F91509F
:103F50005040A9F79E3F510570F05CCFA6CF5F3F60
:103F6000ECF3983EDCF3869577956795B795F795D2
:103F7000E7959F5FC1F7FE2B880F911D969587955A
:103F800097F90895DB018F939F930E942520BF919D
:103F9000AF91A29F800D911DA39F900DB29F900D98
:103FA00011240895991B79E004C0991F961708F011
:103FB000961B881F7A95C9F780950895A1E21A2E5D
:103FC000AA1BBB1BFD010DC0AA1FBB1FEE1FFF1FBD
:103FD000A217B307E407F50720F0A21BB30BE40B0D
:103FE000F50B661F771F881F991F1A9469F7609554
:103FF0007095809590959B01AC01BD01CF0108950E
:10400000052E97FB1EF400940E94172057FD07D041
:104010000E94DE1F07FC03D04EF40C94172050952D
:104020004095309521953F4F4F4F5F4F08959095A4
:104030008095709561957F4F8F4F9F4F0895EE0F3C
:10404000FF1F0590F491E02D09940E943020A59F58
:10405000900DB49F900DA49F800D911D1124089583
:10406000A29FB001B39FC001A39F700D811D1124B9
:10407000911DB29F700D811D1124911D0895F8941A
:02408000FFCF70
:104082000100000000003442000034C22E012C0165
:104092002A01280126012401220120011E01020019
:1040A20004000400020003000400020002000400F5
:1040B20062015E015A01560152014E014A01460156
:1040C200420103000300030002000300010002009A
:1040D20003000200020002000100010003000100CF
:1040E20002000100010001000100010001000100C5
:1040F20001000100010001000000803F0000803F3C
:104102000000803F0000803F0000803F0000803FB1
:104112000000803F0000803F0000803F9E010000C1
:1041220001000100010000000403FE02AE01EC01E7
:10413200E001D401C801B801000070410000F04163
:1041420000003442000034420000000000007041D0
:104152000000F041000070C100000000000070414A
:104162000000F0C1000070C100000000000034C275
:10417200000034C20000F0C1000070C1360200022B
:1041820026021602060200004841000068410000B3
:10419200E0410000E0410000D04000001841000072
:1041A200484100008C4100000000000000000000B7
:1041B200D040000018415C024C023C020000484121
:1041C200000068410000E0410000E0410000D040F2
:1041D200000018410000484100008C41000000002E
:1041E200000000000000D04000001841030003005E
:1041F200B00091010400046418641853746172746D
:104202000043414E2042555320536869656C642037
:10421200696E6974206F6B210043414E20425553F1
:1042220020536869656C6420696E697420666169EF
:104232006C00496E69742043414E2042555320530D
:104242006869656C6420616761696E000000000046
:10425200520F250FFA0E020F150F240F0000000057
:10426200D71A531C591A721A641AB51A0D0A006E1B
:0E427200616E00696E66006F7666002E0000B9
:00000001FF
