:100000000C9475000C949D000C949D000C949D0024
:100010000C949D000C949D000C949D000C944D0438
:100020000C949D000C949D000C949D000C949D00DC
:100030000C949D000C949D000C949D000C949D00CC
:100040000C94A7090C949D000C94970C0C94C90C6B
:100050000C949D000C949D000C949D000C949D00AC
:100060000C949D000C949D00ED05F105B405B705B9
:10007000BA05BE05C205C505C905CC05CF05D20523
:10008000D505D905DD05E105E405E7050000000813
:10009000000201000003040700000000000000004F
:1000A000010204081020408001020408102001020F
:1000B00004081020040404040404040402020202DC
:1000C00002020303030303030000000023002600D1
:1000D000290000000000250028002B00000000007F
:1000E000240027002A007104F90C11241FBECFEF51
:1000F000D8E0DEBFCDBF11E0A0E0B1E0ECEBF1E273
:1001000002C005900D92AE3FB107D9F723E0AEEFE4
:10011000B1E001C01D92A730B207E1F710E0CAEECE
:10012000D0E004C02297FE010E94BE10C63ED10757
:10013000C9F70E943D0D0C94DC100C940000CF9286
:10014000DF92EF92FF920F931F93E82FF92F05C0D4
:10015000015011092109310961F190819623941709
:10016000B9F305C0015011092109310911F190813C
:1001700096239413F7CFC12CD12CE12CF12C0AC07B
:100180008FEFC81AD80AE80AF80A0C151D052E05C3
:100190003F0579F080818623841791F36C2D7D2DA6
:1001A0008E2D9F2D1F910F91FF90EF90DF90CF909C
:1001B000089560E070E080E090E01F910F91FF9063
:1001C000EF90DF90CF900895A0E8B0E01C92E1E8B6
:1001D000F0E0108210928500109284001092890045
:1001E0001092880010926F008C9180648C938081B3
:1001F0008A608083089526E040E855E260E070E080
:1002000086E692E00E94350C68EE73E080E090E0B4
:100210000E94200AF89460E189E492E00E94C907F4
:10022000882369F064E071E086E692E00E94970D11
:100230006DE171E086E692E00E94970DECCF68E3F5
:1002400071E086E692E00E94970D0E94A3090E9449
:10025000630960E087E00E94F00A60E089E00E94A4
:10026000F00A0E94E40078940895CF93C82F87FF86
:1002700006C060E087E00E94F00AC1950BC08111C2
:1002800005C0109289001092880010C061E087E0DC
:100290000E94F00A6C2F772767FD709581E792E046
:1002A0000E9467107093890060938800CF91089531
:1002B000FC018081813031F081E09181913019F031
:1002C00080E0089581E008958F929F92AF92BF924F
:1002D000CF92DF92EF92FF920F931F93CF93DF9312
:1002E000CDB7DEB728970FB6F894DEBF0FBECDBFEF
:1002F0000E94F1092091070230910802621B730BE2
:10030000810991096A3071058105910508F4B2C22D
:100310000E94F109709308026093070220E23EE414
:1003200040E050E061E085E00E94260B60934502CA
:100330007093460280934702909348022AE330E08C
:1003400040E050E00E947B1020931002223010F415
:1003500020911802243618F42093180203C084E672
:100360008093180220E23EE440E050E061E086E045
:100370000E94260B609341027093420280934302D5
:10038000909344022AE330E040E050E00E947B106A
:1003900020930F02223010F420911702243618F413
:1003A0002093170203C084E68093170220E23EE404
:1003B00040E050E061E080E00E94260B60933D0247
:1003C00070933E0280933F02909340022AE330E014
:1003D00040E050E00E947B1020930E02223010F487
:1003E000209116022093160220E23EE440E050E005
:1003F00061E081E00E94260B6093390270933A021B
:1004000080933B0290933C022AE330E040E050E0CE
:100410000E947B1020930D02223010F420911502CF
:100420002093150220E23EE440E050E061E083E0EA
:100430000E94260B60933502709336028093370238
:10044000909338022AE330E040E050E00E947B10B5
:1004500020930C02223010F42091140220931402F5
:1004600020E23EE440E050E061E084E00E94260BA0
:10047000609331027093320280933302909334027E
:100480002AE330E040E050E00E947B1020930B0212
:10049000223010F4209113022093130220E23EE454
:1004A00040E050E061E082E10E94260B60932D0263
:1004B00070932E0280932F02909330022AE330E053
:1004C00040E050E00E947B1020930A02223010F49A
:1004D000209112022093120220E23EE440E050E01C
:1004E00061E083E10E94260B6093290270932A0247
:1004F00080932B0290932C022AE330E040E050E0FE
:100500000E947B1020930902223010F420911102E6
:1005100020931102A09018021091170280901602E9
:10052000B09014020091130280E090E00E94580104
:10053000982E6A2D70E080E090E00E94680F2CEC0D
:100540003CEC4CEC5EE30E94F40F6B017C0160918B
:1005500025027091260280912702909128020E9424
:10056000660F2AE939E949E15FE30E94F40F9B0134
:10057000AC01C701B6010E94D10E0E94350FCB011C
:10058000AA2797FDA095BA2F809325029093260263
:10059000A0932702B0932802612F70E080E090E0E2
:1005A0000E94680F2CEC3CEC4CEC5EE30E94F40FD4
:1005B0006B017C01609121027091220280912302E3
:1005C000909124020E94660F2AE939E949E15FE32C
:1005D0000E94F40F9B01AC01C701B6010E94D10E2D
:1005E0000E94350FCB01AA2797FDA095BA2F8093C3
:1005F000210290932202A0932302B09324026B2D38
:1006000070E080E090E00E94680F2CEC3CEC4CEC39
:100610005EE30E94F40F6B017C0160911D027091FA
:100620001E0280911F02909120020E94660F2AE90B
:1006300039E949E15FE30E94F40F9B01AC01C70176
:10064000B6010E94D10E0E94350FCB01AA2797FD5B
:10065000A095BA2F80931D0290931E02A0931F02B3
:10066000B0932002602F70E080E090E00E94680F5D
:100670002CEC3CEC4CEC5EE30E94F40F6B017C0133
:100680006091190270911A0280911B0290911C02D4
:100690000E94660F2AE939E949E15FE30E94F40FFD
:1006A0009B01AC01C701B6010E94D10E0E94350F1B
:1006B000CB01AA2797FDA095BA2F8093190290939A
:1006C0001A02A0931B02B0931C02FE01319688E02F
:1006D000DF011D928A95E9F7A982BA820B831C83F8
:1006E0008D827F0108E020E040E050E0BA0189E41B
:1006F00092E00E94650889E492E00E94CB08833072
:10070000D1F44EEF51E066E072E089E492E00E949D
:10071000950889E492E00E94D30860E571E086E6DE
:1007200092E00E94970D8091FE01809306038091D4
:10073000FF01809304036091060370E080E090E085
:100740001F921F921F9224E02F932CEFA22EBB2406
:10075000BA94CB2CDB2C18E0E12EF12C00E010E059
:1007600020E030E0A9010E94880E862F60930503E7
:100770000E9435010F900F900F900F90992019F063
:1007800062E671E002C06CE671E086E692E00E94EB
:10079000970D6EEC71E086E692E00E94970D6FE691
:1007A00071E086E692E00E948A0D4AE050E0609196
:1007B000180286E692E00E94710E6AE771E086E612
:1007C00092E00E948A0D4AE050E06091140286E6B1
:1007D00092E00E94710E65E871E086E692E00E9468
:1007E0008A0D4AE050E06091160286E692E00E948F
:1007F000710E60E971E086E692E00E948A0D4AE09F
:1008000050E06091130286E692E00E94710E6BE95F
:1008100071E086E692E00E948A0D4AE050E0609125
:10082000170286E692E00E94710E66EA71E086E6A3
:1008300092E00E948A0D60910503772767FD70950D
:100840004AE050E086E692E00E944C0E66EB71E0D2
:1008500086E692E00E948A0D4AE050E0609104032F
:1008600086E692E00E94710E6EEB71E086E692E001
:100870000E94970D28960FB6F894DEBF0FBECDBF2D
:10088000DF91CF911F910F91FF90EF90DF90CF906C
:10089000BF90AF909F908F9008951F920F920FB6C8
:1008A0000F9211242F933F934F935F936F937F93F6
:1008B0008F939F93AF93BF93EF93FF930E9444094D
:1008C000FF91EF91BF91AF919F918F917F916F9128
:1008D0005F914F913F912F910F900FBE0F901F90FE
:1008E00018956AE089E492E00C94BB078EBD000085
:1008F0000DB407FEFDCF8EB50895CF93DF93EC01C5
:1009000060E088890E94F00A80EC0E94760461E031
:1009100088890E94F00A6AE070E080E090E0DF9150
:10092000CF910C94200A1F93CF93DF93EC01162FE5
:1009300060E088890E94F00A83E00E947604812F9B
:100940000E94760480E00E947604182F61E0888976
:100950000E94F00A812FDF91CF911F910895CF92CD
:10096000DF92EF92FF920F931F93CF93DF9300D00C
:10097000CDB7DEB78C01F62EE22E60E0FC01808957
:1009800049835A830E94F00A83E00E9476048F2DE7
:100990000E9476044981C42E5A81D52EF12CFE1472
:1009A00059F0F8E0FF1641F080E00E947604F6016D
:1009B00081936F01F394F3CF61E0F80180890F9088
:1009C0000F90DF91CF911F910F91FF90EF90DF90EB
:1009D000CF900C94F00AEF92FF921F93CF93DF9386
:1009E0001F92CDB7DEB77C01162F60E0FC01808935
:1009F00049830E94F00A82E00E947604812F0E94BF
:100A000076044981842F0E94760461E0F701808991
:100A10000F90DF91CF911F91FF90EF900C94F00A0F
:100A2000CF92DF92EF92FF920F931F93CF93DF93BA
:100A300000D0CDB7DEB78C01E62EF22E60E0FC01CF
:100A4000808949835A830E94F00A82E00E947604DA
:100A50008E2D0E9476044981E42EC42E5A81D52E13
:100A60008C2D8E198F1530F4F60181916F010E9443
:100A70007604F6CF61E0F80180890F900F90DF9146
:100A8000CF911F910F91FF90EF90DF90CF900C943A
:100A9000F00AEF92FF921F93CF93DF9300D0CDB770
:100AA000DEB77C01162F60E0FC0180892A83498330
:100AB0000E94F00A85E00E947604812F0E9476044D
:100AC0004981842F0E9476042A81822F0E94760415
:100AD00061E0F70180890F900F90DF91CF911F9116
:100AE000FF90EF900C94F00A1F93CF93DF93EC01EB
:100AF00060E088890E94F00A80EA0E94760480E023
:100B00000E947604182F61E088890E94F00A812FE4
:100B1000DF91CF911F9108951F93CF93DF93EC0145
:100B2000162F262F40EE6FE00E9449056FE0CE01A0
:100B30000E949304982F907E81E0911301C080E081
:100B4000DF91CF911F9108950F931F93CF93DF9360
:100B5000EC01462F50E0FA013197E231F105D8F56A
:100B6000EC5CFF4F0C94BC1017E80FEF05C017E0CA
:100B70000AEB02C015E801EF4FE036C017E00EEBBC
:100B800049E032C017E80FEF02C017E80AEF47E06C
:100B90002BC017E80FEF0BC017E00EEB08C017E0F3
:100BA0000DEA05C017E80AEF02C016E800EF43E0BF
:100BB0001BC017E80AEF41E017C015E801EF41E458
:100BC00013C016E800EF05C014E000EA02C012E806
:100BD00000ED40E009C081E016C017E80FEF4FE3D9
:100BE00003C017E80FEF4FE16AE2CE010E94EB0469
:100BF000402F69E2CE010E94EB04412F68E2CE0152
:100C00000E94EB0480E0DF91CF911F910F91089536
:100C10001F93CF93DF93EC0110E340E0612FCE01EF
:100C20000E94EB0460E1610F40E0CE010E94EB0402
:100C300060E2610F40E0CE010E94EB041F5F1E33B3
:100C400061F740E060E6CE010E94EB0440E060E71F
:100C5000CE01DF91CF911F910C94EB040F931F9362
:100C6000CF93DF93EC01062F0E947D0460E8CE0154
:100C70000E948C05182F6AE070E080E090E011116E
:100C80000CC00E94200A602FCE010E94A405882378
:100C900039F06AE070E080E090E00E94200A28C00D
:100CA0006AE070E080E090E00E94200ACE010E949D
:100CB000080643E06BE2CE010E94EB0424E044E628
:100CC00060E6CE010E94490520E040E660E7CE01E3
:100CD0000E94490560E0CE010E948C05C82F882340
:100CE000C1F26AE070E080E090E00E94200A1C2FD0
:100CF000812FDF91CF911F910F9108950F931F9333
:100D0000CF93DF9300D000D0CDB7DEB74130B1F440
:100D10000C831B83890122273327502F5C71402FBE
:100D2000437078E0579F400D112448604A8355E096
:100D3000169507955A95E1F709830DC0A80123E0A0
:100D4000569547952A95E1F749830295000F007E55
:100D50000A831C821B8224E0AE014F5F5F4F0E941A
:100D600010050F900F900F900F90DF91CF911F9172
:100D70000F910895EF92FF920F931F93CF93DF93FC
:100D800000D000D0CDB7DEB77A018901FA01108218
:100D9000F901108211821282138224E0AE014F5FAA
:100DA0005F4F0E94AF042A813981822F90E045E095
:100DB000959587954A95E1F7F8E03F9F800D911D45
:100DC0001124AA2797FDA095BA2FF801808391835B
:100DD000A283B38323FF25C062E0880F991FAA1F57
:100DE000BB1F6A95D1F72370820F911DA11DB11D04
:100DF000BA2FA92F982F88272B81820F911DA11D13
:100E0000B11DBA2FA92F982F88272C81820F911DF1
:100E1000A11DB11D80839183A283B38381E0F7017B
:100E200080830F900F900F900F90DF91CF911F91C3
:100E30000F91FF90EF900895FF920F931F93CF9320
:100E4000DF93EC01F62EAC014A5F5F4F65E06F0D5A
:100E50002D810E9410058E85813019F48D8180646A
:100E60008D8364E06F0D4D81CE010E94EB040981FA
:100E70001A812B813C8148816F2DCE010E947E0614
:100E8000DF91CF911F910F91FF9008950F931F93C2
:100E9000CF93DF93EC01162F9C012F5F3F4FAC01E6
:100EA0000E94BA066FEF610FCE010E949304082FD3
:100EB00064E0610FCE010E949304282F8D8303FF0D
:100EC00003C081E08E8701C01E862F702D83AE0186
:100ED0004A5F5F4F65E0610FCE01DF91CF911F91B7
:100EE0000F910C94AF04615028E048E00C94490540
:100EF0009F92AF92BF92CF92DF92EF92FF920F93A9
:100F00001F93CF93DF9300D01F92CDB7DEB76C0154
:100F10007B0180E3898380E48A8380E58B83FB0106
:100F200010828E010F5F1F4F5E01F4E0AF0EB11C07
:100F3000F80191908F01692DC6010E949304982FAA
:100F4000987083FD04C09394F701908204C00A1541
:100F50001B0571F792E0892F0F900F900F90DF9192
:100F6000CF911F910F91FF90EF90DF90CF90BF90A6
:100F7000AF909F900895CF93DF93EC01862F688BFD
:100F800061E00E94B70A61E08889DF91CF910C94FB
:100F9000F00ACF93DF9300D01F92CDB7DEB76B83FB
:100FA00089839A830E94D9086B8189819A810E94E2
:100FB0002E0691E0811101C090E0892F0F900F90D3
:100FC0000F90DF91CF910895CF92DF92EF920F9320
:100FD0001F93CF93DF93FC0120834183528363836C
:100FE0007483093008F008E00583E686D60180E0C6
:100FF00090E010E0801791073CF42D91EF01C80FAD
:10100000D91F2E830196F6CF80E0DF91CF911F91FB
:101010000F91EF90DF90CF900895CF92DF92EF92F3
:10102000FF920F936701E12C0E94E4070F91FF905C
:10103000EF90DF90CF900895EF92FF920F931F9360
:10104000CF93DF931F92CDB7DEB78C01E12CF12C4B
:10105000BE016F5F7F4FC8010E9478079FEFE91ABA
:10106000F90A823029F482E3E816F10489F724C0F2
:1010700092E3E916F10401F16981C8010E941C079D
:101080006981C8010E947307E12CF12C8FEFE81AE7
:10109000F80A69816150C8010E94930483FF06C069
:1010A00092E3E916F10491F787E007C082E3E816BE
:1010B000F104D1F380E001C086E00F90DF91CF9181
:1010C0001F910F91FF90EF900895EF92FF920F9371
:1010D000CF93DF93EC010E940D08CE01DF91CF91F9
:1010E0000F91FF90EF900C941C08CF93DF93EC01CD
:1010F0000E94740580FF07C061E6CE010E9446078A
:1011000020E041E008C081FF0CC061E7CE010E94F1
:10111000460720E042E06CE2CE010E94490580E0F3
:1011200001C084E0DF91CF910895EF92FF920F9379
:101130001F93CF93DF9300D0CDB7DEB77C018B0137
:1011400049835A830E94750849815A81811118C0C8
:10115000D70115969C91F8019083FA0120E030E0C8
:10116000D70115964C9150E0241735075CF4D70150
:10117000A20FB31F16969C9191932F5F3F4FF0CF14
:10118000F80110820F900F90DF91CF911F910F9176
:10119000FF90EF9008950E947405837011F083E032
:1011A000089584E00895FC016181728183819481B6
:1011B0000895CF93CFB7F89480915A02811127C038
:1011C000EEEBF0E08491EAEAF0E09491E82FF0E0B1
:1011D000EE0FFF1FE452FF4FA591B4918C9189232C
:1011E00021F461E08AE00E94F00A61E08AE00E9456
:1011F000B70A8CB580618CBD8CB580648CBD61E014
:101200008DE00E94B70A61E08BE00E94B70A8091EE
:101210005A028F5F80935A02CFBFCF91089560E04A
:1012200088E00E94F00A82E090E00E94480A61E0B3
:1012300088E00E94F00A85E090E00E94480A60E0A1
:1012400088E00C94F00A8091030383FD1CC0886041
:10125000809303038091030380FF06C00E940F095F
:10126000809103038E7F09C081FF02C08D7F05C07E
:1012700082FF02C08B7F01C0877F80930303809130
:10128000030383FDE7CF089590915C029F5F9093E5
:101290005C0280915B028F5F80935B029A3041F425
:1012A00090910303916094609093030310925C0209
:1012B000843639F480910303826080930303109293
:1012C0005B020C942309089561E088E00E94B70A4C
:1012D00060E083E10E94B70A60E082E10E94B70A01
:1012E00060E080E00E94B70A60E083E00E94B70AF5
:1012F00060E084E00E94B70A60E085E00E94B70ADF
:1013000060E086E00E94B70A61E089E00E94B70AC7
:1013100061E087E00C94B70AA0EBB0E01C92E1EB2F
:10132000F0E010821092B20089EF8093B3008C91AC
:1013300082608C93808184608083E0E7F0E080812C
:101340008260808308950E9464090C948C091F9226
:101350000F920FB60F9211242F933F938F939F9369
:10136000AF93BF9380915E0290915F02A091600263
:10137000B091610230915D0223E0230F2D3720F4FC
:101380000196A11DB11D05C026E8230F0296A11DDF
:10139000B11D20935D0280935E0290935F02A09343
:1013A0006002B09361028091620290916302A09109
:1013B0006402B09165020196A11DB11D8093620285
:1013C00090936302A0936402B0936502BF91AF91C2
:1013D0009F918F913F912F910F900FBE0F901F9073
:1013E00018952FB7F89460915E0270915F0280911A
:1013F0006002909161022FBF08953FB7F8948091E9
:10140000620290916302A0916402B091650226B5D8
:10141000A89B05C02F3F19F00196A11DB11D3FBF2C
:101420006627782F892F9A2F620F711D811D911DBC
:1014300042E0660F771F881F991F4A95D1F70895DC
:10144000CF92DF92EF92FF92CF93DF936B017C01FB
:101450000E94FD09EB01C114D104E104F10489F0FB
:101460000E94CF0E0E94FD096C1B7D0B683E7340ED
:1014700090F381E0C81AD108E108F108C851DC4FA7
:10148000EACFDF91CF91FF90EF90DF90CF9008955A
:101490008230910538F0880F991F880F991F0597A2
:1014A0000197F1F70895789484B5826084BD84B57E
:1014B000816084BD85B5826085BD85B5816085BD4F
:1014C000EEE6F0E0808181608083E1E8F0E0108268
:1014D000808182608083808181608083E0E8F0E0A9
:1014E000808181608083E1EBF0E080818460808393
:1014F000E0EBF0E0808181608083EAE7F0E08081CA
:101500008460808380818260808380818160808329
:101510008081806880831092C1000895833081F0BB
:1015200028F4813099F08230A1F008958730A9F035
:101530008830B9F08430D1F4809180008F7D03C071
:10154000809180008F7780938000089584B58F7795
:1015500002C084B58F7D84BD08958091B0008F77DF
:1015600003C08091B0008F7D8093B0000895CF9329
:10157000DF9390E0FC01E056FF4F2491FC01EC5416
:10158000FF4F8491882349F190E0880F991FFC0157
:10159000E452FF4FA591B4918E529F4FFC01C5912B
:1015A000D4919FB7611108C0F8948C912095822343
:1015B0008C93888182230AC0623051F4F8948C9114
:1015C000322F309583238C938881822B888304C0AB
:1015D000F8948C91822B8C939FBFDF91CF910895CB
:1015E0000F931F93CF93DF931F92CDB7DEB7282FB2
:1015F00030E0F901E457FF4F8491F901E056FF4FC5
:101600001491F901EC54FF4F04910023C9F0882391
:1016100021F069830E948E0A6981E02FF0E0EE0FCD
:10162000FF1FEE52FF4FA591B4919FB7F8948C9194
:10163000611103C01095812301C0812B8C939FBF42
:101640000F90DF91CF911F910F9108950F931F93EA
:10165000762F90E0FC01E056FF4F6491FC01EC54C2
:10166000FF4FE4917111762FF0E0EE0FFF1FE8536A
:10167000FF4F8591949189019A013F70472F0E94F5
:101680009F00611571058105910531F06F5F7F4FF6
:101690008F4F9F4F9F7003C060E070E0CB011F91A0
:1016A0000F910895FC01818D228D90E0805C9F4F09
:1016B000821B91098F7399270895FC01918D828D6A
:1016C000981731F0828DE80FF11D858D90E0089517
:1016D0008FEF9FEF0895FC01918D828D981761F037
:1016E000828DDF01A80FB11D5D968C91928D9F5F59
:1016F0009F73928F90E008958FEF9FEF08958FEE84
:101700009CE0892B49F080E090E0892B29F00E9431
:10171000EF0C81110C9400000895FC01848DDF0111
:10172000A80FB11DA35ABF4F2C91848D90E0019654
:101730008F739927848FA689B7892C93A089B18943
:101740008C9180648C93938D848D981306C002884D
:10175000F389E02D80818F7D80830895CF93DF937F
:10176000EC01888D8823C9F0EA89FB89808185FD99
:1017700005C0A889B9898C9186FD0FC00FB607FCFA
:10178000F5CF808185FFF2CFA889B9898C9185FF3B
:10179000EDCFCE010E948D0BE7CFDF91CF91089561
:1017A000CF92DF92FF920F931F93CF93DF931F92FD
:1017B000CDB7DEB76C0181E0D60158968C9358976F
:1017C0005B969C915B975C968C915C97981307C095
:1017D0005096ED91FC915197808185FD2EC0F601C8
:1017E000038D10E00F5F1F4F0F731127F02EF601CE
:1017F000848DF81211C00FB607FCF9CFD6015096B0
:10180000ED91FC915197808185FFF1CFC6016983ED
:101810000E948D0B6981EBCF838DE80FF11DE35A98
:10182000FF4F6083D6015B960C935B975296ED91C8
:10183000FC915397808180620CC0D6015696ED9141
:10184000FC91579760835096ED91FC915197808160
:101850008064808381E090E00F90DF91CF911F91B1
:101860000F91FF90DF90CF900895BF92CF92DF92BB
:10187000EF92FF92CF93DF93EC016A017B01B22ECE
:10188000E889F98982E08083411581EE5807610576
:101890007105A1F060E079E08DE390E0A701960189
:1018A0000E947B10215031094109510956954795F5
:1018B00037952795211580E1380798F0E889F9894F
:1018C000108260E874E88EE190E0A70196010E9422
:1018D0007B1021503109410951095695479537959B
:1018E0002795EC85FD853083EE85FF852083188E56
:1018F000EC89FD89B082EA89FB89808180618083DF
:10190000EA89FB89808188608083EA89FB898081FC
:1019100080688083EA89FB8980818F7D8083DF9165
:10192000CF91FF90EF90DF90CF90BF9008951F92DE
:101930000F920FB60F9211242F938F939F93EF93D3
:10194000FF93E0917602F09177028081E0917C0232
:10195000F0917D0282FD12C0908180917F028F5FA5
:101960008F7320918002821751F0E0917F02F0E0A6
:10197000EA59FD4F958F80937F0201C08081FF91CE
:10198000EF919F918F912F910F900FBE0F901F900D
:1019900018951F920F920FB60F9211242F933F9319
:1019A0004F935F936F937F938F939F93AF93BF9367
:1019B000EF93FF9386E692E00E948D0BFF91EF91EB
:1019C000BF91AF919F918F917F916F915F914F9157
:1019D0003F912F910F900FBE0F901F90189586E6A4
:1019E00092E00E94520B21E0892B09F420E0822F23
:1019F0000895109269021092680288EE93E0A0E0C8
:101A0000B0E080936A0290936B02A0936C02B09353
:101A10006D0281EE91E0909367028093660285ECFF
:101A200090E0909373028093720284EC90E0909324
:101A300075028093740280EC90E09093770280931B
:101A4000760281EC90E0909379028093780282ECA8
:101A500090E090937B0280937A0286EC90E09093E2
:101A60007D0280937C0210927F021092800210927D
:101A7000810210928202089508950E94530A0E94E2
:101A80003C0D0E94FB00CFE7DBE00E946401209741
:101A9000E1F30E947F0BF9CFCF92DF92EF92FF929A
:101AA0000F931F93CF93DF936C017A01EB01E60E46
:101AB000F71E00E010E0CE15DF0561F06991D60158
:101AC000ED91FC910190F081E02DC6010995080F80
:101AD000191FF1CFC801DF91CF911F910F91FF9096
:101AE000EF90DF90CF9008956115710581F0DB01D3
:101AF0000D900020E9F7AD0141505109461B570BED
:101B0000DC01ED91FC910280F381E02D099480E0ED
:101B100090E008950C94740DDC01ED91FC9101901E
:101B2000F081E02D09946DEE71E00C94740D0F932B
:101B30001F93CF93DF93EC010E94740D8C01CE01B3
:101B40000E94930D800F911FDF91CF911F910F91F4
:101B500008958F929F92AF92BF92CF92DF92EF92B1
:101B6000FF920F931F93CF93DF93CDB7DEB7A1976B
:101B70000FB6F894DEBF0FBECDBF7C01C42EE52F9B
:101B8000CB01D22E19A221E02D1510F02AE0D22E81
:101B90008E010F5D1F4F8D2C912CA12CB12C6C2D23
:101BA0007E2FA50194010E947B108C2DD29E80195E
:101BB0001124015011098A3014F4805D01C0895C40
:101BC000F8018083211531054105510521F0C22E10
:101BD000E32FCA01E4CFB801C7010E94740DA1969A
:101BE0000FB6F894DEBF0FBECDBFDF91CF911F912E
:101BF0000F91FF90EF90DF90CF90BF90AF909F90AC
:101C00008F900895CF92DF92EF92FF920F931F93E0
:101C1000CF93DF93EC016A017B012115310579F443
:101C2000E881F9810190F081E02D642FDF91CF915F
:101C30001F910F91FF90EF90DF90CF9009942A3081
:101C40003105E9F477FF1AC06DE20E948C0D8C011A
:101C500044275527BA014C195D096E097F092AE00E
:101C6000CE010E94A90D800F911FDF91CF911F918E
:101C70000F91FF90EF90DF90CF9008952AE0B70189
:101C8000A601CE01DF91CF911F910F91FF90EF90B0
:101C9000DF90CF900C94A90D0F931F93CF93DF93F8
:101CA000EC019A01AB01662757FD6095762F0E94E3
:101CB000020E8C01CE010E94930D800F911FDF91C7
:101CC000CF911F910F9108952115310541F4DC0149
:101CD000ED91FC910190F081E02D642F09940C941A
:101CE000A90D0F931F93CF93DF93EC019A01462F19
:101CF00050E060E070E00E94640E8C01CE010E9412
:101D0000930D800F911FDF91CF911F910F91089537
:101D10004F925F926F927F92AF92BF92CF92DF927B
:101D2000EF92FF920F931F93CF93DF93CDB7DEB760
:101D300029013A01621B730B840B950B29893A899F
:101D40004B895C892A193B094C095D09298B3A8B1F
:101D50004B8B5C8B9B01AC0169897A898B899C894F
:101D60000E945710E418F50806091709A801970101
:101D70000E949D102A0D3B1D4C1D5D1DCA01B9011D
:101D8000DF91CF911F910F91FF90EF90DF90CF9057
:101D9000BF90AF907F906F905F904F90089508959F
:101DA0005058BB27AA270ED0E5C0D6D030F0DBD0E4
:101DB00020F031F49F3F11F41EF4CBC00EF4E095F7
:101DC000E7FBC1C0E92FE7D080F3BA1762077307BA
:101DD0008407950718F071F49EF5FFC00EF4E095A6
:101DE0000B2EBA2FA02D0B01B90190010C01CA01D5
:101DF000A0011124FF27591B99F0593F50F4503E80
:101E000068F11A16F040A22F232F342F4427585F71
:101E1000F3CF469537952795A795F0405395C9F789
:101E20007EF41F16BA0B620B730B840BBAF0915041
:101E3000A1F0FF0FBB1F661F771F881FC2F70EC0E0
:101E4000BA0F621F731F841F48F4879577956795B3
:101E5000B795F7959E3F08F0B3CF9395880F08F09C
:101E60009927EE0F97958795089504D06894B1113E
:101E7000B5C0089598D088F09F5790F0B92F992752
:101E8000B751A0F0D1F0660F771F881F991F1AF085
:101E9000BA95C9F712C0B13081F09FD0B1E0089572
:101EA0009CC0672F782F8827B85F39F0B93FCCF3F3
:101EB000869577956795B395D9F73EF4909580957B
:101EC000709561957F4F8F4F9F4F0895E89409C09B
:101ED00097FB3EF490958095709561957F4F8F4F5D
:101EE0009F4F9923A9F0F92F96E9BB279395F69573
:101EF000879577956795B795F111F8CFFAF4BB0FF1
:101F000011F460FF1BC06F5F7F4F8F4F9F4F16C054
:101F1000882311F096E911C0772321F09EE8872FDE
:101F2000762F05C0662371F096E8862F70E060E09A
:101F30002AF09A95660F771F881FDAF7880F969513
:101F4000879597F9089597F99F6780E870E060E0BA
:101F500008959FEF80EC089500240A941616170642
:101F600018060906089500240A941216130614068A
:101F700005060895092E0394000C11F4882352F0ED
:101F8000BB0F40F4BF2B11F460FF04C06F5F7F4FA5
:101F90008F4F9F4F089557FD9058440F551F59F08C
:101FA0005F3F71F04795880F97FB991F61F09F3F46
:101FB00079F087950895121613061406551FF2CF6F
:101FC0004695F1DF08C0161617061806991FF1CFBF
:101FD00086957105610508940895E894BB276627E6
:101FE0007727CB0197F908950BD0C4CFB5DF28F040
:101FF000BADF18F0952309F0A6CFABCF1124EECFAE
:10200000CADFA0F3959FD1F3950F50E0551F629F53
:10201000F001729FBB27F00DB11D639FAA27F00D41
:10202000B11DAA1F649F6627B00DA11D661F829F68
:102030002227B00DA11D621F739FB00DA11D621F4D
:10204000839FA00D611D221F749F3327A00D611D6A
:10205000231F849F600D211D822F762F6A2F11244C
:102060009F5750408AF0E1F088234AF0EE0FFF1F9F
:10207000BB1F661F771F881F91505040A9F79E3FD6
:10208000510570F060CFAACF5F3FECF3983EDCF3D0
:10209000869577956795B795F795E7959F5FC1F713
:1020A000FE2B880F911D9695879597F90895DB0172
:1020B0008F939F930E94C210BF91AF91A29F800DFA
:1020C000911DA39F900DB29F900D11240895AA1BFE
:1020D000BB1B51E107C0AA1FBB1FA617B70710F013
:1020E000A61BB70B881F991F5A95A9F78095909545
:1020F000BC01CD010895A1E21A2EAA1BBB1BFD0154
:102100000DC0AA1FBB1FEE1FFF1FA217B307E407D6
:10211000F50720F0A21BB30BE40BF50B661F771F2E
:10212000881F991F1A9469F760957095809590950E
:102130009B01AC01BD01CF010895052E97FB1EF454
:1021400000940E94B41057FD07D00E947B1007FC3A
:1021500003D04EF40C94B4105095409530952195D1
:102160003F4F4F4F5F4F08959095809570956195C3
:102170007F4F8F4F9F4F0895EE0FFF1F0590F491F3
:10218000E02D09940E94CD10A59F900DB49F900D55
:10219000A49F800D911D11240895A29FB001B39FAB
:1021A000C001A39F700D811D1124911DB29F700D60
:0C21B000811D1124911D0895F894FFCFAB
:1021BC000100000043414E2042555320536869658D
:1021CC006C6420696E6974206661696C0020496ECC
:1021DC0069742043414E2042555320536869656C05
:1021EC006420616761696E0043414E204255532063
:1021FC00536869656C6420696E6974206F6B21008B
:10220C002D2D2D2D2D2D2D2D2D2D2D2D2D2D2D2DF2
:10221C002D004F42535441434C455300474F0053FC
:10222C00656E736F7220313A200053656E736F7256
:10223C0020323A200053656E736F7220333A2000BF
:10224C0053656E736F7220343A200053656E736F52
:10225C007220353A2000537465707065725F6D6F33
:10226C006465203A20004B416B61203A20003D3DD3
:10227C003D3D3D3D3D3D3D3D3D3D3D3D3D3D3D3D82
:10228C003D3D3D3D3D3D3D3D3D3D3D3D0000000066
:10229C0000D00B4C0D520B6B0B5D0BAE0B0D0A00F3
:0E22AC006E616E00696E66006F7666002E0031
:00000001FF
