:100000000C9472000C9427180C9454180C949A00B9
:100010000C949A000C949A000C949A000C94580337
:100020000C949A000C949A000C949A000C949D0ED7
:100030000C949A000C949A000C949A000C949A00D8
:100040000C9481180C949A000C943A1B0C946C1B21
:100050000C949A000C949A000C949A000C949A00B8
:100060000C940B160C949A0025122912EC11EF1126
:10007000F211F611FA11FD110112041207120A12FF
:100080000D121112151219121C121F120000000875
:10009000000201000003040700000000000000004F
:1000A000010204081020408001020408102001020F
:1000B00004081020040404040404040402020202DC
:1000C00002020303030303030000000025002800CD
:1000D0002B0000000000240027002A00EA07DE159C
:1000E00002189C1B11241FBECFEFD8E0DEBFCDBF8E
:1000F00012E0A0E0B1E0EEECFFE302C005900D924B
:10010000AA3FB107D9F724E0AAEFB2E001C01D92DF
:10011000AD3FB207E1F710E0C4EED0E004C0229793
:10012000FE010E94C71FCC3DD107C9F70E94E01B0A
:100130000C94E51F0C94000080913C0390913D03CA
:10014000A0913E03B0913F030196A11DB11D809384
:100150003C0390933D03A0933E03B0933F03089567
:100160004F925F926F927F928F929F92AF92BF92C7
:10017000CF92DF92EF92FF920F931F93CF93DF9373
:10018000CDB7DEB72C970FB6F894DEBF0FBECDBF4C
:100190006B017C01DA018D909D90AD90BC9013971E
:1001A00014968D919D910D90BC91A02D89839A8379
:1001B000AB83BC83DA0118968D919D910D90BC9113
:1001C000A02D8D839E83AF83B887FA014484558424
:1001D000668477849C01AD01C701B6010E94B21DFF
:1001E000181684F5A7019601C301B2010E94B21D41
:1001F00087FD2FC0A30192016D817E818F8198853B
:100200000E94B21D882329F1A7019601C301B20102
:100210000E944D1D69877A878B879C872D813E813F
:100220004F815885C301B2010E944D1D9B01AC0155
:1002300069857A858B859C850E94B61D3B01582E69
:10024000492E0BC0612C712C80E8582E9FE3492E5B
:1002500004C0612C712C512C412CA701960169819D
:100260007A818B819C810E94B21D18165CF5A501D4
:100270009401C701B6010E94B21D87FD28C02981E3
:100280003A814B815C81C501B4010E94B21D882373
:10029000F1F0A5019401C701B6010E944D1D6B014B
:1002A0007C01A501940169817A818B819C810E94E6
:1002B0004D1D9B01AC01C701B6010E94B61D7B011B
:1002C0008C0109C0E12CF12C00E81FE304C0E12CF3
:1002D000F12C00E010E09701A801B301852D942DC9
:1002E0000E94B21D87FF03C0052D142D01C03701E8
:1002F000B301C8012C960FB6F894DEBF0FBECDBF78
:10030000DF91CF911F910F91FF90EF90DF90CF90F1
:10031000BF90AF909F908F907F906F905F904F9025
:1003200008952F923F924F925F926F927F928F9299
:100330009F92AF92BF92CF92DF92EF92FF920F9374
:100340001F93CF93DF93CDB7DEB728970FB6F894FE
:10035000DEBF0FBECDBF6B017C01DA018D919D9197
:100360000D90BC91A02D89839A83AB83BC83FA0145
:1003700084809580A680B78080859185A285B3858D
:100380008D839E83AF83B887A7019601BC01CD0101
:100390000E944D1D2B013C01A50194016D817E81C0
:1003A0008F8198850E944D1D9B01AC01C301B20154
:1003B0000E94B61D362E272E182F092FA501940155
:1003C00069817A818B819C810E94B21D811146C016
:1003D0002D813E814F815885C501B4010E94B21D17
:1003E00081110FC029813A814B815C81C701B6011F
:1003F0000E94B21D20E030E08111A5C010E80FE39B
:10040000A7C0A7019601C501B4010E94B21D18162C
:100410002CF020E030E040E85FE303C020E030E073
:10042000A901632D722D812F902F0E94051F4B0172
:100430005C012D813E814F815885C701B6010E9424
:10044000B21D18162CF020E030E040E85FE303C056
:1004500020E030E0A901C501B40152C029813A81F0
:100460004B815C81C701B6010E944D1D2B013C01EF
:1004700029813A814B815C81C501B4010E944D1DE7
:100480009B01AC01C301B2010E94B61D562E672E1E
:10049000782E492E2D813E814F815885C501B401AA
:1004A0000E94B21D811132C0A701960169817A8133
:1004B0008B819C810E94B21D18162CF020E030E048
:1004C00040E85FE303C020E030E0A901652D762D10
:1004D000872D942D0E94051F2B013C01A50194013D
:1004E000C701B6010E94B21D18162CF020E030E0C2
:1004F00040E85FE303C020E030E0A901C301B2019E
:100500000E94051F9B01182F092F22C0232D322D79
:10051000412F502F652D762D872D942D0E94B21DD1
:1005200087FF04C0352C262C172D042D20E030E049
:10053000A901632D722D812F902F0E94011F181683
:100540002CF020E030E010E000E002C0232D322D3E
:10055000B901812F902F28960FB6F894DEBF0FBEF9
:10056000CDBFDF91CF911F910F91FF90EF90DF9062
:10057000CF90BF90AF909F908F907F906F905F9043
:100580004F903F902F900895CF92DF92EF92FF927D
:100590000F931F93CF93DF936B017C018901D42FBD
:1005A000C52F0E94011F18161CF48601DE2DCF2DC9
:1005B000B8018D2F9C2FDF91CF911F910F91FF904C
:1005C000EF90DF90CF90089561E087E00E94BF191F
:1005D00064EF71E080E090E00E94FA181092380316
:1005E0001092390310923A0310923B031092340395
:1005F0001092350310923603109237031092300395
:1006000010923103109232031092330365E070E0D0
:1006100080E493E00E94F30F68EC70E080E090E0EB
:100620000E94FA186CED75E080E493E00E940710D8
:1006300043E050E06CE970E081E00E94071826E09A
:1006400040E855E260E070E080E694E00E94D81A4D
:1006500067E772E080E694E00E94381C60E183E482
:1006600093E00E940114811110C06DE772E080E6F2
:1006700094E00E94381C60ED77E080E090E00E94FA
:10068000FA180E9487170C94571765E972E080E604
:1006900094E00E94381C6EEA72E080E694E00E94CA
:1006A000381C64E670E080E090E00E94FA18D6CF33
:1006B0001F920F920FB60F9211242F933F934F93D7
:1006C0005F936F937F938F939F93AF93BF93EF93BA
:1006D000FF930E943817FF91EF91BF91AF919F91C7
:1006E0008F917F916F915F914F913F912F910F90DB
:1006F0000FBE0F901F901895AF92BF92CF92DF92CE
:10070000EF92FF920F931F93CF93DF93FC01EB01C6
:100710006A01209709F1A081B181B280A380613084
:100720007105F1F07C0184E0E80EF11C01E010E0BD
:100730000C171D07ACF4F7012191319141915191B2
:100740007F01BD018B2D9A2DF6010995DB01B82E95
:10075000A92E0F5F1F4FECCFA0E0B0E0B12CA12C71
:10076000BD018B2D9A2DDF91CF911F910F91FF909D
:10077000EF90DF90CF90BF90AF9008952F923F926F
:100780004F925F926F927F928F929F92AF92BF92A1
:10079000CF92DF92EF92FF920F931F93CF93DF934D
:1007A000CDB7DEB72C970FB6F894DEBF0FBECDBF26
:1007B0009C838B836A017B018901000F111F8CE0F0
:1007C00091E09A8389831C861B86D801A456BE4F6C
:1007D000BE83AD83F801E455FE4FF887EF83A9810E
:1007E000BA81ED91FD91BA83A983E00FF11F808159
:1007F00091811816190604F50197880F991FAD818C
:10080000BE81ED91FC91E80FF91F0190F081E02D80
:10081000EE0FFF1FE059FD4FAF81B8852D913C9140
:10082000280F391FD9014D915C910190F081E02D85
:10083000C701B60109952AC0009759F18095909596
:10084000880F991FAD81BE81ED91FC91E80FF91FD2
:100850000190F081E02DEE0FFF1FE059FD4FAF81B9
:10086000B8852D913C91280F391FD9014D915C918C
:100870000190F081E02DC701B60109959B01AC0103
:1008800060E070E080E89FE30E944D1D4B015C0139
:1008900004C0812C912CA12CB12CEB81FC812080F7
:1008A00031808B859C85820D931D9A878987A281D3
:1008B000B381EB85FC85AE0FBF1F5C9011966C90E9
:1008C000119712967C90129713964C90252D362DE9
:1008D000472D542DB401C5010E94B21D87FD04C0EF
:1008E000852C962CA72CB42CC401D501E985FA855A
:1008F00080839183A283B3838B859C8504969C8798
:100900008B87849709F06BCF44EC52E069E070E08C
:10091000C1012C960FB6F894DEBF0FBECDBFDF919C
:10092000CF911F910F91FF90EF90DF90CF90BF90EC
:10093000AF909F908F907F906F905F904F903F907F
:100940002F900C947C032F923F924F925F926F9264
:100950007F928F929F92AF92BF92CF92DF92EF924F
:10096000FF920F931F93CF93DF93CDB7DEB72E97F0
:100970000FB6F894DEBF0FBECDBF9C878B871B01DF
:10098000CB01880F991F880F991F9A838983FC01D7
:10099000EC5FFE4F885F9E4F3C01DC012D913D9145
:1009A0004D915C9160817181828193810E944D1D86
:1009B00020E030E048EC52E40E94B61D6B837C835B
:1009C0008D839E8300E010E0812C912C54017501F1
:1009D00064017E866D86B801882777FD8095982F03
:1009E0000E94511E9B01AC016B817C818D819E8197
:1009F0000E94051FED85FE85208131814281538152
:100A00000E944E1D6F83788789879A879101AB0179
:100A1000BC018B859C850E94BE039B01AC016B8150
:100A20007C818D819E810E94051F2B013C019B01D1
:100A3000AC01C701B6010E944E1D6B017C012F81E4
:100A4000388549855A85C301B2010E94051F9B0163
:100A5000AC01C501B4010E944E1D4B015C010F5F4A
:100A60001F4F0536110509F0B6CF20E030E0A9018F
:100A7000C701B6010E94B21D811117C0E981FA8138
:100A8000EC5FFE4FAD85BE852D913D914D915C9102
:100A900060817181828193810E944E1D20E030E04F
:100AA00040E05FE30E94051F06C0A7019601C50153
:100AB000B4010E94B61D2E960FB6F894DEBF0FBE8D
:100AC000CDBFDF91CF911F910F91FF90EF90DF90FD
:100AD000CF90BF90AF909F908F907F906F905F90DE
:100AE0004F903F902F9008952F923F924F925F9298
:100AF0006F927F928F929F92AF92BF92CF92DF922E
:100B0000EF92FF920F931F93CF93DF93CDB7DEB792
:100B1000C257D1090FB6F894DEBF0FBECDBFDE01BC
:100B2000AB5ABF4F1D921D921D921C9213971496A3
:100B30001D921D921D921C92179718961D921D9240
:100B40001D921C921B97FE01E75BFF4F10821182E2
:100B500012821382148215821682178210861186E1
:100B600012861386A796BFAFAEAFA797A996FFAF21
:100B7000EEAFA99784E2B497DF01282F1D922A9542
:100B8000E9F7DE0111966D011D928A95E9F7A396AA
:100B9000FFAFEEAFA397A596DFAECEAEA59748E127
:100BA000842E43E0942E00E010E0A12CB12CE12C27
:100BB000F12CF801E459FD4F2F0185E6282E312C48
:100BC0002C0E3D1E200E311E980128553E4FAB962F
:100BD0003FAF2EAFAB97980124503E4FAD963FAF3D
:100BE0002EAFAD97D2018D919C91E816F906BCF518
:100BF000F101608071806A0C7B1CC701880F991F0E
:100C0000AB96AEADBFADAB97ED91FC91E80FF91F80
:100C10000190F081E02DEE0FFF1FE059FD4FAD96E2
:100C2000AEADBFADAD972D913C91280F391FD901C5
:100C30004D915C91D4016D917D918D919C9101902C
:100C4000F081E02D0995F3016083718382839383A2
:100C5000FFEFEF1AFF0A24E0A20EB11CC3CF0E5F14
:100C60001F4FB4E08B0E911C0430110509F09DCF8D
:100C700086E691E0AD969FAF8EAFAD97A8E7B1E065
:100C8000E196BFAFAEAFE197E0E3F1E0AB96FFAF27
:100C9000EEAFAB97812C912C540125E630E02C0F60
:100CA0003D1F2C5F3F4FE3963FAF2EAFE397AD96CE
:100CB000AEADBFADAD978D919D91AD96BFAFAEAFCF
:100CC000AD97019709F0BAC08FEF9FEFAFE7BFE78D
:100CD000F60180839183A283B383AB96AEADBFADA3
:100CE000AB970D90BC91A02DAF96BFAFAEAFAF97B5
:100CF0008E010B591F4FAF96EEADFFADAF978191AF
:100D00009191AF96FFAFEEAFAF97D6016C90119671
:100D10007C9011971296EC9012971396FC901816EF
:100D2000190684F48150904C880F991F880F991FE1
:100D3000D801ED91FC91E80FF91F208031804280AD
:100D4000538019C0009721F180959095880F991FC5
:100D5000880F991FD801ED91FC91E80FF91F2081B0
:100D600031814281538160E070E080E89FE30E941E
:100D70004D1D1B012C019101A201B301C7010E946D
:100D8000B21D87FD02C031017201C301D70114C039
:100D900020E030E040E85FE3B301C7010E94B21DEC
:100DA00087FF03C03E2D2F2D04C0612C712C30E82D
:100DB0002FE3C301A32FB22FF60180839183A28377
:100DC000B3830E5F1F4FE3962EAD3FADE39702173F
:100DD000130709F090CFE196AEADBFADE1976D91ED
:100DE0007D918D919D91E196BFAFAEAFE197F601F8
:100DF00020813181428153810E94051F9B01AC01FA
:100E0000D6016D937D938D939D936D01C501B401C2
:100E10000E944E1D4B015C01AB96EEADFFADAB9752
:100E20003296AB96FFAFEEAFAB97AD962EAD3FAD22
:100E3000AD972857314009F03ACF81C08FEF9FEF2F
:100E4000AFE7BFEFF60180839183A283B383AB96B4
:100E5000AEADBFADAB970D90BC91A02DAF96BFAF1F
:100E6000AEAFAF978E010B591F4FAF96EEADFFADF2
:100E7000AF9781919191AF96FFAFEEAFAF97D6014B
:100E80006C9011967C9011971296EC901297139695
:100E9000FC901816190684F48150904C880F991F05
:100EA000880F991FD801ED91FC91E80FF91F208060
:100EB00031804280538019C0009711F18095909540
:100EC000880F991F880F991FD801ED91FC91E80FA9
:100ED000F91F208131814281538160E070E080E818
:100EE0009FE30E944D1D1B012C019101A201B30142
:100EF000C7010E94011F181684F0310172010DC054
:100F000020E030E0A901B301C7010E94011F1816BB
:100F100024F0612C712CE12CF12CC301D701F601D6
:100F200080839183A283B3830E5F1F4FE3962EAD20
:100F30003FADE3970217130709F097CF4CCF20E09E
:100F400030E0A901C501B4010E94B21D882341F01F
:100F500060E070E0CE018F599F4F0E94A30418C03B
:100F6000209108013091090140910A0150910B0133
:100F70006091040170910501809106019091070133
:100F80000E944E1D20E030E040E05FE30E94051F1C
:100F900060931403709315038093160390931703C3
:100FA000CE58DF4F0FB6F894DEBF0FBECDBFDF9136
:100FB000CF911F910F91FF90EF90DF90CF90BF9056
:100FC000AF909F908F907F906F905F904F903F90E9
:100FD0002F9008956AE083E493E00E94F31380E485
:100FE00093E00E94590F80912603909127039093DC
:100FF0002503809324030895AF92BF92CF92DF928E
:10100000EF92FF920F931F930E94CB1800912C0335
:1010100010912D0320912E0330912F03601B710B33
:10102000820B930B683E734081059105A0F060919F
:101030002203709123034AE050E080E694E00E948E
:10104000ED1C0E94CB1860932C0370932D038093AA
:101050002E0390932F0380E694E00E94F519181652
:1010600019067CF580E694E00E940E1A8333E1F4C1
:1010700080912103813329F48093200384E190E05F
:1010800006C0823341F48093200389E190E090937D
:101090002703809326038091260390912703909342
:1010A0002503809324030DC08093210380E3809364
:1010B000200310922703109226031092250310920A
:1010C000240380913B04882309F40AC480913A04E4
:1010D000882309F405C480913C04882309F400C4E2
:1010E00080913D04882309F4FBC38091210381533F
:1010F000823008F0F5C30E94CB18009130031091A4
:1011000031032091320330913303601B710B820B4A
:10111000930B643671058105910508F4E1C3809154
:101120003C0390913D03A0913E03B0913F03809317
:10113000380390933903A0933A03B0933B03009193
:101140003B0410E0109311030093100360913C04E2
:1011500070E0709313036093120380913A0490E05F
:1011600090930D0380930C0380913D0490E0909345
:101170000F0380930E0380913E0490E090930B0345
:1011800080930A038091260390912703873091056D
:1011900009F48AC1ACF48330910509F40DC14CF413
:1011A0008130910509F4A9C00CF0C3C0892BA9F1C5
:1011B00075C38530910509F451C10CF43CC161C17E
:1011C0008C30910509F4FBC254F48930910509F47F
:1011D00027C20CF488C10B9709F4CBC25FC38E30D1
:1011E000910509F42AC30CF40BC38F30910509F45F
:1011F00043C38336910509F051C382E090E0909398
:101200002303809322036AE570E080E493E00E9468
:101210003A1084E08093760241C381E090E090939D
:1012200023038093220328E0209376020F311105D7
:101230008CF0909325038093240366E970E080E4AA
:1012400093E00E943A1062E370E080E090E00E9438
:10125000FA1824C3882777FD8095982F0E94511E85
:10126000609318037093190380931A0390931B03E0
:10127000B801882777FD8095982F0E94511E6093B2
:101280001C0370931D0380931E0390931F03109201
:1012900014031092150310921603109217030E9464
:1012A0007405609114037091150380911603909159
:1012B00017030E941E1E1F921F921F9226E92F9352
:1012C0005EE1A52EB12CC12CD12C11E2E12EF12C26
:1012D00000E010E02FED3FEF4FEF5FEF0E94051DA4
:1012E000709307036093060380E493E00E943A1032
:1012F0000F900F900F900F90D1C26AE570E080E4DC
:1013000093E00E943A1080911203909113034F973B
:101310000CF4C4C2109209031092080382E090E01A
:10132000909325038093240380E493E00E94F90FB7
:10133000B5C2809138039091390320910803309110
:101340000903820F931F2091340330913503821BD0
:10135000930B909309038093080320912103213379
:10136000C1F40F977CF46E3171050CF097C265E003
:1013700070E080E493E00E94F30F10922503109236
:1013800024038CC283E090E0909325038093240390
:101390000EC0223309F082C209972CF383E090E05B
:1013A000909325038093240382E080937602109229
:1013B00009031092080372C2809138039091390397
:1013C0002091080330910903820F931F2091340369
:1013D00030913503821B930B90930903809308038C
:1013E00020912103213399F404970CF457C265E04E
:1013F00070E080E493E00E94F30F84E08093760233
:10140000109209031092080384E090E00FC0223389
:1014100009F044C208970CF441C284E0809376023C
:1014200010920903109208038BE090E0909325033B
:101430008093240333C260E070E080E493E00E9474
:101440003A1082E08093760280910E0390910F0310
:101450008D970CF023C285E090E0E8CF6AE570E05C
:1014600080E493E00E943A1082E0809376028091BB
:101470000E0390910F0383970CF010C286E090E06A
:10148000D5CF64EB70E080E493E00E943A1082E0F4
:101490008093760280910E0390910F030F970CF0CA
:1014A000FDC187E090E0C2CF60E070E080E493E0AF
:1014B0000E943A1086E08093760280910C0390910E
:1014C0000D038031910544F020910E0330910F03FC
:1014D0002E3131050CF42BC128E030E03093250388
:1014E0002093240324C1882777FD8095982F0E949C
:1014F000511E609318037093190380931A039093FD
:101500001B03B801882777FD8095982F0E94511EF4
:1015100060931C0370931D0380931E0390931F031D
:1015200010921403109215031092160310921703D1
:101530000E94740560911403709115038091160345
:10154000909117030E941E1E1F921F921F922EE160
:101550002F9336E9A32EB12CC12CD12C11E2E12E10
:10156000F12C00E010E02FED3FEF4FEF5FEF0E9416
:10157000051D709307036093060380E493E00E94C7
:101580003A1082E080937602409174025091750285
:101590000F900F900F900F9020910E0330910F033A
:1015A00045305105A4F080910C0390910D03821BEE
:1015B000930B0196039758F483E690E090932503EC
:1015C0008093240310927502109274020FC02B3086
:1015D000310564F489E090E090932503809324031F
:1015E0004F5F5F4F509375024093740280911203D6
:1015F00090911303AC01485051094B30510508F04C
:101600004DC14091100350911103841B950B01961D
:10161000039708F043C180910C0390910D03A2C081
:10162000882777FD8095982F0E94511E609318039C
:101630007093190380931A0390931B03B8018827B2
:1016400077FD8095982F0E94511E60931C03709324
:101650001D0380931E0390931F0310921403109296
:10166000150310921603109217030E9474056091DF
:1016700014037091150380911603909117030E9433
:101680001E1E1F921F921F9226E92F93BEE1AB2EC2
:10169000B12CC12CD12C11E2E12EF12C00E010E094
:1016A0002FED3FEF4FEF5FEF0E94051D7093070393
:1016B0006093060380E493E00E943A1086E08093F2
:1016C000760240917402509175020F900F900F9026
:1016D0000F9080910C0390910D0345305105C4F09B
:1016E00020910E0330910F03BC01621B730B9B0111
:1016F0002F5F3F4F2330310558F423E630E030931D
:1017000025032093240310927502109274020FC0D7
:101710008B30910564F428E030E03093250320936A
:1017200024034F5F5F4F50937502409374022091E2
:10173000120330911303A901485051094B30510550
:1017400008F0ACC04091100350911103241B350BDD
:101750002F5F3F4F2330310508F0A0C020910E03CA
:1017600030910F03821B930B0196039708F096C0EC
:1017700092C065E070E080E493E00E94F30F64EBB8
:1017800070E080E493E00E943A1064EF71E080E042
:1017900090E00E94FA1880E493E00E94F90F64EF51
:1017A00071E080E090E00E94FA188091120390911D
:1017B0001303CD970CF472C08CE090E037CE80918B
:1017C0003803909139032091080330910903820F67
:1017D000931F2091340330913503821B930B909318
:1017E00009038093080326E02093760208970CF4FF
:1017F00055C010920903109208038DE090E016CEB8
:1018000065E070E080E493E00E94F30F6AE570E029
:1018100080E493E00E943A1084E080937602209165
:1018200010033091110380911203909113038217DA
:101830009307A4F58EE090E0F9CD60E070E080E4DD
:1018400093E00E943A1082E0809376028091100328
:10185000909111032091120330911303821B930B7B
:1018600005960B97D8F480910E0390910F038997FA
:10187000ACF48FE090E0DACD6AE570E080E493E0CC
:101880000E943A1082E08093760280910E0390913C
:101890000F0340971CF483E690E0C8CD80912403A9
:1018A000909125039093270380932603809138031A
:1018B00090913903A0913A03B0913B038093340394
:1018C00090933503A0933603B09337030E94CB184F
:1018D000609330037093310380933203909333030A
:1018E00080913B04882309F41FC280913A04882325
:1018F00009F41AC280913C04882309F415C280912E
:101900003D04882309F410C2809120038153823062
:1019100008F00AC20E94CB180091280310912903F5
:1019200020912A0330912B03601B710B820B930BC8
:10193000643671058105910508F4F6C180913C0378
:1019400090913D03A0913E03B0913F0380933803F3
:1019500090933903A0933A03B0933B0300913B0467
:1019600010E0109311030093100360913C0470E0A9
:10197000709313036093120380913A0490E0909364
:101980000D0380930C0320913D0430E030930F034E
:1019900020930E03809126039091270388319105AF
:1019A00009F47DC07CF485319105D9F11CF444978C
:1019B00071F198C18631910509F44BC0479709F43C
:1019C0005BC090C18B31910509F42AC144F489317F
:1019D000910509F4F7C04A9709F4FEC083C18E311E
:1019E000910509F473C08336910509F07BC182E04B
:1019F00090E090932303809322036AE570E080E4F3
:101A000093E00E943A1084E0809376026BC182E0FA
:101A100080937602293031050CF064C185E190E0B5
:101A200013C085E08093760264EB70E080E493E07D
:101A30000E943A1080910C0390910D030B97CB9765
:101A400008F450C186E190E090932503809324032D
:101A500049C182E08093760260E070E080E493E028
:101A60000E943A1080910E0390910F0340970CF062
:101A700039C187E190E0E8CF6EE670E080E493E062
:101A80000E943A1086E08093760280910E03909136
:101A90000F038D970CF426C188E190E0D5CF60E06C
:101AA00070E080E493E00E943A10809112039091DC
:101AB00013034A970CF016C1809110039091110303
:101AC0004A970CF00FC18EE190E0BECF80E493E026
:101AD0000E949F10811106C065E070E080E493E0F1
:101AE0000E94F30F6091120370911303882777FD12
:101AF0008095982F0E94511E6093180370931903CC
:101B000080931A0390931B0360911003709111034B
:101B1000882777FD8095982F0E94511E60931C03A3
:101B200070931D0380931E0390931F031092140360
:101B30001092150310921603109217030E94740559
:101B4000609114037091150380911603909117030F
:101B50000E941E1E1F921F921F9226E92F93FEE1E4
:101B6000AF2EB12CC12CD12C11E2E12EF12C00E0D2
:101B700010E02FED3FEF4FEF5FEF0E94051D7093D8
:101B800007036093060380E493E00E943A1080917B
:101B90001003909111032091120330911303821BC3
:101BA000930B01960F900F900F900F90039708F0F2
:101BB00099C080910E0390910F03803591050CF42C
:101BC00091C08DC088E080937602223131050CF4FB
:101BD00089C08AE190E038CF80E493E00E949F10B2
:101BE000811106C065E070E080E493E00E94F30F8D
:101BF00060E070E080E493E00E943A10809110036E
:101C00009091110340970CF06DC080910E0390915C
:101C10000F03803591050CF465C08BE190E014CF83
:101C2000882777FD8095982F0E94511E6093180396
:101C30007093190380931A0390931B03B8018827AC
:101C400077FD8095982F0E94511E60931C0370931E
:101C50001D0380931E0390931F0310921403109290
:101C6000150310921603109217030E9474056091D9
:101C700014037091150380911603909117030E942D
:101C80001E1E1F921F921F9226E92F935EE1A52E22
:101C9000B12CC12CD12C11E2E12EF12C00E010E08E
:101CA0002FED3FEF4FEF5FEF0E94051D709307038D
:101CB0006093060380E493E00E943A108091100341
:101CC000909111032091120330911303821B930B07
:101CD00001960F900F900F900F90039718F483E6E2
:101CE00090E0B2CE80912403909125039093270336
:101CF000809326038091380390913903A0913A0391
:101D0000B0913B038093340390933503A093360343
:101D1000B09337030E94CB18609328037093290374
:101D200080932A0390932B031F910F91FF90EF90C4
:101D3000DF90CF90BF90AF9008951F920F920FB693
:101D40000F9211242F933F934F935F936F937F9341
:101D50008F939F93AF93BF93EF93FF93809155031E
:101D600087FF05C010928500109284001AC0209150
:101D70005503332727FD30958091540390E02817B1
:101D800039077CF480915503992787FD9095FC01D4
:101D9000EE0FFF1FE80FF91FEA5AFC4F808186FD06
:101DA00015C0809155038F5F809355032091550393
:101DB000332727FD30958091540390E02817390789
:101DC000BCF4809155038C305CF112C080915503B6
:101DD000992787FD9095FC01EE0FFF1FE80FF91F73
:101DE000EA5AFC4F808160E08F730E94BF19D9CFFF
:101DF0008091840090918500049680349C4918F469
:101E000080E49CE905C0809184009091850004964F
:101E100090938900809388008FEF8093550338C09A
:101E2000209184003091850080915503992787FD8A
:101E30009095FC01EE0FFF1FE80FF91FEA5AFC4FC7
:101E400081819281820F931F9093890080938800F3
:101E500080915503992787FD9095FC01EE0FFF1F98
:101E6000E80FF91FEA5AFC4F808186FF11C080916C
:101E70005503992787FD9095FC01EE0FFF1FE80F92
:101E8000F91FEA5AFC4F808161E08F730E94BF19ED
:101E9000FF91EF91BF91AF919F918F917F916F9142
:101EA0005F914F913F912F910F900FBE0F901F9018
:101EB0001895209154032C30A0F431E0320F309368
:101EC0005403FC012083822F90E0FC01EE0FFF1FE2
:101ED000E80FF91FEA5AFC4F88EB9BE0928381835D
:101EE00008952FEFFC0120830895DF92EF92FF9277
:101EF0000F931F93CF93DF93EC01D62E7A018901C4
:101F000088818C3008F066C061E08D2D0E948619B2
:101F10008881A82FB0E0FD01EE0FFF1FEA0FFB1F25
:101F2000EA5AFC4F2D2D2F739081907C922B908339
:101F300060E272E06E197F0977FF02C06D5F7F4F2C
:101F40007595679575956795698340E659E0401BDF
:101F5000510B57FF02C04D5F5F4F55954795559503
:101F600047954A836CE00E94781F9CE0899FB001EE
:101F7000112420E030E0A901460F571FFA01EE0FAF
:101F8000FF1FE40FF51FEA5AFC4F908196FD16C023
:101F90002F5F3F4F2C30310571F781110FC0109228
:101FA000800082E08093810010928500109284006E
:101FB000B19A80916F00826080936F00888190E079
:101FC000FC01EE0FFF1FE80FF91FEA5AFC4F80815A
:101FD000806480838881DF91CF911F910F91FF9062
:101FE000EF90DF90089520E639E040E252E00C9453
:101FF000750FFC01808190E0FC01EE0FFF1FE80FE0
:10200000F91FEA5AFC4F80818F7B80830895FC0181
:1020100080818C3070F5918128E830E0291B3109EE
:1020200097FD3395220F331F220F331F621773075B
:102030007CF0928128E532E0291B310997FD339528
:10204000220F331F220F331F621773070CF49B01FB
:1020500022503109220F331F4FB7F89490E0FC0152
:10206000EE0FFF1FE80FF91FEA5AFC4F328321835E
:102070004FBF08954F925F926F927F92AF92BF923F
:10208000CF92DF92EF92FF920F931F93CF93DF9344
:10209000EC01603282E078070CF040C077FD06C0AA
:1020A000653B71052CF064EB70E002C060E070E00D
:1020B000898128E830E0281B310987FD3395220FFC
:1020C000331F220F331F5901CC24B7FCC094DC2CE2
:1020D000882777FD8095982F2A8148E552E0421B9A
:1020E000510927FD5395440F551F440F551F2A01D1
:1020F000662457FC6094762C7F926F925F924F9289
:1021000014EBE12EF12C00E010E020E030E0A9011A
:102110000E94051D0F900F900F900F90CE01DF9140
:10212000CF911F910F91FF90EF90DF90CF90BF90D4
:10213000AF907F906F905F904F900C940710FC01D0
:10214000808190E0FC01EE0FFF1FE80FF91FEA5AB3
:10215000FC4F808186FB882780F908958EBD0000A2
:102160000DB407FEFDCF8EB50895CF93DF93EC013C
:1021700060E088890E94BF1980EC0E94AE1061E087
:1021800088890E94BF196AE070E080E090E0DF91EA
:10219000CF910C94FA181F93CF93DF93EC01162F75
:1021A00060E088890E94BF1983E00E94AE10812FF1
:1021B0000E94AE1080E00E94AE10182F61E0888966
:1021C0000E94BF19812FDF91CF911F910895CF9267
:1021D000DF92EF92FF920F931F93CF93DF9300D084
:1021E000CDB7DEB78C01F62EE22E60E0FC018089CF
:1021F00049835A830E94BF1983E00E94AE108F2D3D
:102200000E94AE104981C42E5A81D52EF12CFE14A5
:1022100059F0F8E0FF1641F080E00E94AE10F601A0
:1022200081936F01F394F3CF61E0F80180890F90FF
:102230000F90DF91CF911F910F91FF90EF90DF9062
:10224000CF900C94BF19EF92FF921F93CF93DF931F
:102250001F92CDB7DEB77C01162F60E0FC018089AC
:1022600049830E94BF1982E00E94AE10812F0E9414
:10227000AE104981842F0E94AE1061E0F701808981
:102280000F90DF91CF911F91FF90EF900C94BF19A9
:10229000CF92DF92EF92FF920F931F93CF93DF9332
:1022A00000D0CDB7DEB78C01E62EF22E60E0FC0147
:1022B000808949835A830E94BF1982E00E94AE1030
:1022C0008E2D0E94AE104981E42EC42E5A81D52E47
:1022D0008C2D8E198F1530F4F60181916F010E94BB
:1022E000AE10F6CF61E0F80180890F900F90DF917A
:1022F000CF911F910F91FF90EF90DF90CF900C94B2
:10230000BF19EF92FF921F93CF93DF9300D0CDB709
:10231000DEB77C01162F60E0FC0180892A834983A7
:102320000E94BF1985E00E94AE10812F0E94AE105E
:102330004981842F0E94AE102A81822F0E94AE1004
:1023400061E0F70180890F900F90DF91CF911F918D
:10235000FF90EF900C94BF191F93CF93DF93EC0184
:1023600060E088890E94BF1980EA0E94AE1080E078
:102370000E94AE10182F61E088890E94BF19812F3A
:10238000DF91CF911F9108951F93CF93DF93EC01BD
:10239000162F262F40EE6FE00E9481116FE0CE01D4
:1023A0000E94CB10982F907E81E0911301C080E0B5
:1023B000DF91CF911F9108950F931F93CF93DF93D8
:1023C000EC01462F50E0FA013197E231F105D8F5E2
:1023D000EC5CFF4F0C94C51F17E80FEF05C017E02A
:1023E0000AEB02C015E801EF4FE036C017E00EEB34
:1023F00049E032C017E80FEF02C017E80AEF47E0E4
:102400002BC017E80FEF0BC017E00EEB08C017E06A
:102410000DEA05C017E80AEF02C016E800EF43E036
:102420001BC017E80AEF41E017C015E801EF41E4CF
:1024300013C016E800EF05C014E000EA02C012E87D
:1024400000ED40E009C081E016C017E80FEF4FE350
:1024500003C017E80FEF4FE16AE2CE010E9423119B
:10246000402F69E2CE010E942311412F68E2CE0184
:102470000E94231180E0DF91CF911F910F91089569
:102480001F93CF93DF93EC0110E340E0612FCE0167
:102490000E94231160E1610F40E0CE010E942311F0
:1024A00060E2610F40E0CE010E9423111F5F1E33E6
:1024B00061F740E060E6CE010E94231140E060E752
:1024C000CE01DF91CF911F910C9423110F931F9395
:1024D000CF93DF93EC01062F0E94B51060E8CE0188
:1024E0000E94C411182F6AE070E080E090E01111A2
:1024F0000CC00E94FA18602FCE010E94DC118823C4
:1025000039F06AE070E080E090E00E94FA1828C09C
:102510006AE070E080E090E00E94FA18CE010E942C
:10252000401243E06BE2CE010E94231124E044E616
:1025300060E6CE010E94811120E040E660E7CE0116
:102540000E94811160E0CE010E94C411C82F88232F
:10255000C1F26AE070E080E090E00E94FA181C2F5F
:10256000812FDF91CF911F910F9108950F931F93AA
:10257000CF93DF9300D000D0CDB7DEB74130B1F4B8
:102580000C831B83890122273327502F5C71402F36
:10259000437078E0579F400D112448604A8355E00E
:1025A000169507955A95E1F709830DC0A80123E018
:1025B000569547952A95E1F749830295000F007ECD
:1025C0000A831C821B8224E0AE014F5F5F4F0E9492
:1025D00048110F900F900F900F90DF91CF911F91A6
:1025E0000F910895EF92FF920F931F93CF93DF9374
:1025F00000D000D0CDB7DEB77A018901FA01108290
:10260000F901108211821282138224E0AE014F5F21
:102610005F4F0E94E7102A813981822F90E045E0C8
:10262000959587954A95E1F7F8E03F9F800D911DBC
:102630001124AA2797FDA095BA2FF80180839183D2
:10264000A283B38323FF25C062E0880F991FAA1FCE
:10265000BB1F6A95D1F72370820F911DA11DB11D7B
:10266000BA2FA92F982F88272B81820F911DA11D8A
:10267000B11DBA2FA92F982F88272C81820F911D69
:10268000A11DB11D80839183A283B38381E0F701F3
:1026900080830F900F900F900F90DF91CF911F913B
:1026A0000F91FF90EF900895FF920F931F93CF9398
:1026B000DF93EC01F62EAC014A5F5F4F65E06F0DD2
:1026C0002D810E9448118E85813019F48D8180649E
:1026D0008D8364E06F0D4D81CE010E94231109812D
:1026E0001A812B813C8148816F2DCE010E94B61248
:1026F000DF91CF911F910F91FF9008950F931F933A
:10270000CF93DF93EC01162F9C012F5F3F4FAC015D
:102710000E94F2126FEF610FCE010E94CB10082FC2
:1027200064E0610FCE010E94CB10282F8D8303FF40
:1027300003C081E08E8701C01E862F702D83AE01FD
:102740004A5F5F4F65E0610FCE01DF91CF911F912E
:102750000F910C94E710615028E048E00C9481112F
:102760009F92AF92BF92CF92DF92EF92FF920F9320
:102770001F93CF93DF9300D01F92CDB7DEB76C01CC
:102780007B0180E3898380E48A8380E58B83FB017E
:1027900010828E010F5F1F4F5E01F4E0AF0EB11C7F
:1027A000F80191908F01692DC6010E94CB10982FDE
:1027B000987083FD04C09394F701908204C00A15B9
:1027C0001B0571F792E0892F0F900F900F90DF910A
:1027D000CF911F910F91FF90EF90DF90CF90BF901E
:1027E000AF909F900895CF93DF93EC01862F688B75
:1027F00061E00E94861961E08889DF91CF910C9495
:10280000BF19CF93DF9300D01F92CDB7DEB76B8394
:1028100089839A830E9411156B8189819A810E9414
:10282000661291E0811101C090E0892F0F900F9006
:102830000F90DF91CF910895CF92DF92EF920F9397
:102840001F93CF93DF93FC012083418352836383E3
:102850007483093008F008E00583E686D60180E03D
:1028600090E010E0801791073CF42D91EF01C80F24
:10287000D91F2E830196F6CF80E0DF91CF911F9173
:102880000F91EF90DF90CF900895CF92DF92EF926B
:10289000FF920F936701E12C0E941C140F91FF908F
:1028A000EF90DF90CF900895EF92FF920F931F93D8
:1028B000CF93DF931F92CDB7DEB78C01E12CF12CC3
:1028C000BE016F5F7F4FC8010E94B0139FEFE91AEE
:1028D000F90A823029F482E3E816F10489F724C06A
:1028E00092E3E916F10401F16981C8010E945413D1
:1028F0006981C8010E94AB13E12CF12C8FEFE81A1B
:10290000F80A69816150C8010E94CB1083FF06C09C
:1029100092E3E916F10491F787E007C082E3E81635
:10292000F104D1F380E001C086E00F90DF91CF91F8
:102930001F910F91FF90EF900895EF92FF920F93E8
:10294000CF93DF93EC010E944514CE01DF91CF912C
:102950000F91FF90EF900C945414CF93DF93EC0100
:102960000E94AC1180FF07C061E6CE010E947E1379
:1029700020E041E008C081FF0CC061E7CE010E9469
:102980007E1320E042E06CE2CE010E94811180E0E3
:1029900001C084E0DF91CF910895EF92FF920F93F1
:1029A0001F93CF93DF9300D0CDB7DEB77C018B01AF
:1029B00049835A830E94AD1449815A81811118C0FC
:1029C000D70115969C91F8019083FA0120E030E040
:1029D000D70115964C9150E0241735075CF4D701C8
:1029E000A20FB31F16969C9191932F5F3F4FF0CF8C
:1029F000F80110820F900F90DF91CF911F910F91EE
:102A0000FF90EF9008950E94AC11837011F083E065
:102A1000089584E00895FC0161817281838194812D
:102A20000895CF93CFB7F89480917A03811127C08E
:102A3000EEEBF0E08491EAEAF0E09491E82FF0E028
:102A4000EE0FFF1FEE52FF4FA591B4918C91892399
:102A500021F461E08AE00E94BF1961E08AE00E94EF
:102A600086198CB580618CBD8CB580648CBD61E0AD
:102A70008DE00E94861961E08BE00E9486198091AA
:102A80007A038F5F80937A03CFBFCF9108958091AF
:102A9000AA0390E02091AB03821B91090895209135
:102AA000AB038091AA03281750F4E22FF0E0E4551D
:102AB000FC4F808190E02F5F2093AB0308958FEF50
:102AC0009FEF0895E091AB038091AA03E81730F4DB
:102AD000F0E0E455FC4F808190E008958FEF9FEF88
:102AE00008950895CF92DF92EF92FF920F931F9374
:102AF000CF93DF937C01CB018A01209187032223AE
:102B000089F0EB016B01C40ED51ECC15DD0569F013
:102B10006991D701ED91FC910190F081E02DC70101
:102B20000995F3CF642F0E94E215C801DF91CF9180
:102B30001F910F91FF90EF90DF90CF900895CF936A
:102B4000DF931F92CDB7DEB76983209187032223DD
:102B5000D1F020918803203240F021E030E0FC01E8
:102B60003383228380E090E015C080918903E82FB1
:102B7000F0E0E657FC4F998190838F5F8093890343
:102B80008093880305C061E0CE0101960E94E215A2
:102B900081E090E00F90DF91CF910895FC011382C6
:102BA000128248EE53E060E070E044835583668310
:102BB00077838CEC92E09183808308958BE793E098
:102BC0000C94CE15613298F420913904243089F4A4
:102BD0006093EE03FC0180EF93E0DC012A2F281BB9
:102BE000261718F421912D93F9CF80E0089581E004
:102BF000089582E0089585ED8093BC008091BC002B
:102C000084FDFCCF10923904089585EC8093BC00BC
:102C10001092390408951F920F920FB60F9211244B
:102C20002F933F934F935F936F937F938F939F93D4
:102C3000AF93BF93EF93FF938091B900887F803665
:102C400009F49CC068F5883209F45BC090F48031C7
:102C500009F454C038F4882309F4F5C0883009F425
:102C60004DC0F5C0883109F44CC0803209F45DC014
:102C7000EEC0803409F468C048F4803309F455C0CC
:102C8000883309F0E4C08093CC03A8C0803509F4F0
:102C90004FC0883509F45DC0883409F0D8C0D5C06C
:102CA000883909F4C6C0A8F4883709F467C038F435
:102CB000883609F463C0803709F460C0C8C088381A
:102CC00009F4B7C0803909F45FC0803809F0BFC08B
:102CD0005BC0803B09F485C038F4803A09F466C0D3
:102CE000883A09F47EC0B3C0803C09F4A6C0883C91
:102CF00009F4A3C0883B09F489C0A9C080913804B5
:102D000010C09091110480911004981770F5E09113
:102D1000110481E08E0F80931104F0E0EE5EFB4F12
:102D200080818093BB0085EC85C08093CC038DC0EF
:102D3000E091110481E08E0F809311048091BB001B
:102D4000F0E0EE5EFB4F80839091110480911004BF
:102D50006DC0E091110481E08E0F80931104809189
:102D6000BB00F0E0EE5EFB4F808380913704811161
:102D70006CC081E08093360484EA60C083E0809375
:102D800039041092CD03CFCF8091CD03803208F06B
:102D900050C0E091CD0381E08E0F8093CD038091F0
:102DA000BB00F0E0E253FC4F8083BDCF8091CD03A8
:102DB000803230F4E091CD03F0E0E253FC4F10821A
:102DC0000E94FB156091CD0370E0E0913204F09118
:102DD00033048EEC93E009951092CD030E94051602
:102DE00036C084E0809339041092EF031092EE0312
:102DF000E0913404F091350409958091EE0381113E
:102E000005C081E08093EE031092F003E091EF03A0
:102E100081E08E0F8093EF03F0E0E051FC4F808162
:102E20008093BB009091EF038091EE03981708F414
:102E30007ACF85E88093BC000AC085EC8093BC0003
:102E40001092390404C01092CC030E94FB15FF912C
:102E5000EF91BF91AF919F918F917F916F915F9112
:102E60004F913F912F910F900FBE0F901F9018958B
:102E7000909141049F5F90934104809140048F5F43
:102E8000809340049A3041F490913F0491609460A3
:102E900090933F0410924104843639F480913F04AA
:102EA000826080933F04109240040C94E1170895CF
:102EB00062E083E00E94861961E089E00E94861941
:102EC00061E088E00E94861961E087E00E9486192F
:102ED00061E086E00E94861961E085E00C94861925
:102EE000A0EBB0E01C92E1EBF0E010821092B20097
:102EF0008FEF8093B3008C9182608C93808184608B
:102F00008083E0E7F0E080818260808308950E9402
:102F100058170C947017EF92FF920F93CF93DF9393
:102F2000CDB7DEB761970FB6F894DEBF0FBECDBF49
:102F3000198ACE0101967C0188E0F70111928A95E9
:102F4000E9F781E08A8382E08B838091760289832E
:102F500082E494E00E9403158330E9F4AE01475FF8
:102F60005F4FBE016F5E7F4F82E494E00E94CD14FC
:102F700082E494E00E940B15898580933A048A8547
:102F800080933B048B8580933C048C8580933D0427
:102F90008D8580933E0408E020E041E050E060E051
:102FA00070E082E494E00E949D1461960FB6F8945C
:102FB000DEBF0FBECDBFDF91CF910F91FF90EF909D
:102FC000089580913F0483FD1CC0886080933F0476
:102FD00080913F0480FF06C00E948B1780913F04C0
:102FE0008E7F09C081FF02C08D7F05C082FF02C0B5
:102FF0008B7F01C0877F80933F0480913F0483FDD6
:10300000E7CF08956AE082E494E00C94F3138230F1
:10301000E8F4E82FF0E0EE0FFF1FED5AFB4F71834D
:103020006083813041F0809169008C7F842B809394
:103030006900E89A089580916900440F551F440F74
:10304000551F837F842B80936900E99A08951F920E
:103050000F920FB60F9211242F933F934F935F93CC
:103060006F937F938F939F93AF93BF93EF93FF9350
:103070008091530490915404892B29F0E0915304DA
:10308000F09154040995FF91EF91BF91AF919F91F9
:103090008F917F916F915F914F913F912F910F9001
:1030A0000FBE0F901F9018951F920F920FB60F92A0
:1030B00011242F933F934F935F936F937F938F933D
:1030C0009F93AF93BF93EF93FF938091550490919B
:1030D0005604892B29F0E0915504F0915604099586
:1030E000FF91EF91BF91AF919F918F917F916F91E0
:1030F0005F914F913F912F910F900FBE0F901F90B6
:1031000018951F920F920FB60F9211242F933F9391
:103110008F939F93AF93BF938091580490915904DC
:10312000A0915A04B0915B043091570423E0230F1F
:103130002D3720F40196A11DB11D05C026E8230FEF
:103140000296A11DB11D20935704809358049093BB
:103150005904A0935A04B0935B0480915C0490914D
:103160005D04A0915E04B0915F040196A11DB11DA4
:1031700080935C0490935D04A0935E04B0935F041D
:10318000BF91AF919F918F913F912F910F900FBE63
:103190000F901F9018952FB7F89460915804709174
:1031A000590480915A0490915B042FBF08953FB752
:1031B000F89480915C0490915D04A0915E04B091BC
:1031C0005F0426B5A89B05C02F3F19F00196A11DED
:1031D000B11D3FBF6627782F892F9A2F620F711D6F
:1031E000811D911D42E0660F771F881F991F4A9528
:1031F000D1F70895CF92DF92EF92FF92CF93DF93B2
:103200006B017C010E94D718EB01C114D104E104C9
:10321000F10489F00E944C1D0E94D7186C1B7D0B95
:10322000683E734090F381E0C81AD108E108F108C4
:10323000C851DC4FEACFDF91CF91FF90EF90DF9044
:10324000CF900895789484B5826084BD84B5816000
:1032500084BD85B5826085BD85B5816085BDEEE69E
:10326000F0E0808181608083E1E8F0E0108280817D
:1032700082608083808181608083E0E8F0E08081EB
:1032800081608083E1EBF0E0808184608083E0EB0B
:10329000F0E0808181608083EAE7F0E080818460F3
:1032A000808380818260808380818160808380814F
:1032B000806880831092C1000895833081F028F4E3
:1032C000813099F08230A1F008958730A9F08830DC
:1032D000B9F08430D1F4809180008F7D03C080915B
:1032E00080008F7780938000089584B58F7702C027
:1032F00084B58F7D84BD08958091B0008F7703C021
:103300008091B0008F7D8093B0000895CF93DF93BC
:1033100090E0FC01E056FF4F2491FC01EC54FF4F7C
:103320008491882349F190E0880F991FFC01EE52A7
:10333000FF4FA591B49188539F4FFC01C591D49143
:103340009FB7611108C0F8948C91209582238C93CB
:10335000888182230AC0623051F4F8948C91322F14
:10336000309583238C938881822B888304C0F894C2
:103370008C91822B8C939FBFDF91CF9108950F93F7
:103380001F93CF93DF931F92CDB7DEB7282F30E086
:10339000F901E457FF4F8491F901E056FF4F149172
:1033A000F901EC54FF4F04910023C9F0882321F068
:1033B00069830E945D196981E02FF0E0EE0FFF1F25
:1033C000E853FF4FA591B4919FB7F8948C91611188
:1033D00003C01095812301C0812B8C939FBF0F9058
:1033E000DF91CF911F910F910895FC01818D228D66
:1033F00090E0805C9F4F821B91098F7399270895FD
:10340000FC01918D828D981731F0828DE80FF11DAE
:10341000858D90E008958FEF9FEF0895FC01918DC9
:10342000828D981761F0828DDF01A80FB11D5D9626
:103430008C91928D9F5F9F73928F90E008958FEF94
:103440009FEF089582E99BE1892B49F080E090E0AD
:10345000892B29F00E94921B81110C940000089581
:10346000FC01848DDF01A80FB11DA35ABF4F2C9121
:10347000848D90E001968F739927848FA689B789F0
:103480002C93A089B1898C9180648C93938D848DC9
:10349000981306C00288F389E02D80818F7D808398
:1034A0000895CF93DF93EC01888D8823C9F0EA89D2
:1034B000FB89808185FD05C0A889B9898C9186FD2D
:1034C0000FC00FB607FCF5CF808185FFF2CFA8892A
:1034D000B9898C9185FFEDCFCE010E94301AE7CFDC
:1034E000DF91CF910895CF92DF92FF920F931F93B8
:1034F000CF93DF931F92CDB7DEB76C0181E0D60189
:1035000058968C9358975B969C915B975C968C91A0
:103510005C97981307C05096ED91FC91519780816C
:1035200085FD2EC0F601038D10E00F5F1F4F0F7356
:103530001127F02EF601848DF81211C00FB607FC8A
:10354000F9CFD6015096ED91FC915197808185FF7E
:10355000F1CFC60169830E94301A6981EBCF838D58
:10356000E80FF11DE35AFF4F6083D6015B960C9381
:103570005B975296ED91FC915397808180620CC0CD
:10358000D6015696ED91FC91579760835096ED9138
:10359000FC91519780818064808381E090E00F905E
:1035A000DF91CF911F910F91FF90DF90CF90089501
:1035B000BF92CF92DF92EF92FF92CF93DF93EC0115
:1035C0006A017B01B22EE889F98982E08083411586
:1035D00081EE580761057105A1F060E079E08DE3A7
:1035E00090E0A70196010E94841F215031094109F2
:1035F00051095695479537952795211580E138074C
:1036000098F0E889F989108260E874E88EE190E02A
:10361000A70196010E94841F2150310941095109D7
:103620005695479537952795EC85FD853083EE8532
:10363000FF852083188EEC89FD89B082EA89FB8999
:10364000808180618083EA89FB89808188608083B2
:10365000EA89FB89808180688083EA89FB8980818F
:103660008F7D8083DF91CF91FF90EF90DF90CF909F
:10367000BF9008951F920F920FB60F9211242F93AF
:103680008F939F93EF93FF93E0917004F0917104F7
:103690008081E0917604F091770482FD12C09081E0
:1036A000809179048F5F8F7320917A04821751F093
:1036B000E0917904F0E0E05AFB4F958F8093790414
:1036C00001C08081FF91EF919F918F912F910F9079
:1036D0000FBE0F901F9018951F920F920FB60F926A
:1036E00011242F933F934F935F936F937F938F9307
:1036F0009F93AF93BF93EF93FF9380E694E00E9474
:10370000301AFF91EF91BF91AF919F918F917F916F
:103710006F915F914F913F912F910F900FBE0F903E
:103720001F90189580E694E00E94F51921E0892BFE
:1037300009F420E0822F089510926304109262042D
:1037400088EE93E0A0E0B0E0809364049093650479
:10375000A0936604B09367048CED92E090936104AB
:103760008093600485EC90E090936D0480936C04EA
:1037700084EC90E090936F0480936E0480EC90E072
:10378000909371048093700481EC90E090937304A3
:103790008093720482EC90E090937504809374049B
:1037A00086EC90E0909377048093760410927904ED
:1037B00010927A0410927B0410927C04089508956C
:1037C0000E9422190E94DF1B0E94E402C2E2DAE199
:1037D0000E94FC072097E1F30E94221AF9CFCF92B2
:1037E000DF92EF92FF920F931F93CF93DF936C01C1
:1037F0007A01EB01E60EF71E00E010E0CE15DF05C2
:1038000061F06991D601ED91FC910190F081E02D7C
:10381000C6010995080F191FF1CFC801DF91CF919B
:103820001F910F91FF90EF90DF90CF900895611559
:10383000710581F0DB010D900020E9F7AD014150E9
:103840005109461B570BDC01ED91FC910280F3817D
:10385000E02D099480E090E00895DC01ED91FC9169
:103860000190F081E02D099468EE72E00C94171C31
:103870000F931F93CF93DF93EC010E94171C8C01D1
:10388000CE010E94341C800F911FDF91CF911F91B8
:103890000F9108958F929F92AF92BF92CF92DF9235
:1038A000EF92FF920F931F93CF93DF93CDB7DEB7C5
:1038B000A1970FB6F894DEBF0FBECDBF7C01C42E1A
:1038C000E52FCB01D22E19A221E02D1510F02AE010
:1038D000D22E8E010F5D1F4F8D2C912CA12CB12C5F
:1038E0006C2D7E2FA50194010E94841F8C2DD29EE9
:1038F00080191124015011098A3014F4805D01C02F
:10390000895CF8018083211531054105510521F0BD
:10391000C22EE32FCA01E4CFB801C7010E94171CD1
:10392000A1960FB6F894DEBF0FBECDBFDF91CF9149
:103930001F910F91FF90EF90DF90CF90BF90AF90CD
:103940009F908F900895CF92DF92EF92FF920F9306
:103950001F93CF93DF93EC016A017B0121153105A1
:1039600079F4E881F9810190F081E02D642FDF91F5
:10397000CF911F910F91FF90EF90DF90CF9009941E
:103980002A303105E9F477FF1AC06DE20E942D1C40
:103990008C0144275527BA014C195D096E097F092E
:1039A0002AE0CE010E944A1C800F911FDF91CF9127
:1039B0001F910F91FF90EF90DF90CF9008952AE034
:1039C000B701A601CE01DF91CF911F910F91FF901A
:1039D000EF90DF90CF900C944A1C0F931F93CF93DE
:1039E000DF93EC019A01AB01662757FD6095762FB6
:1039F0000E94A31C8C01CE010E94341C800F911FD9
:103A0000DF91CF911F910F9108954F925F926F9226
:103A10007F92AF92BF92CF92DF92EF92FF920F937D
:103A20001F93CF93DF93CDB7DEB729013A01621B15
:103A3000730B840B950B29893A894B895C892A1968
:103A40003B094C095D09298B3A8B4B8B5C8B9B01A5
:103A5000AC0169897A898B899C890E94681FE41866
:103A6000F50806091709A80197010E94A61F2A0D4B
:103A70003B1D4C1D5D1DCA01B901DF91CF911F9106
:103A80000F91FF90EF90DF90CF90BF90AF907F901D
:103A90006F905F904F90089508955058BB27AA27C4
:103AA0000ED075C166D130F06BD120F031F49F3F5C
:103AB00011F41EF45BC10EF4E095E7FB51C1E92F50
:103AC00077D180F3BA17620773078407950718F058
:103AD00071F49EF58FC10EF4E0950B2EBA2FA02D38
:103AE0000B01B90190010C01CA01A0011124FF27AB
:103AF000591B99F0593F50F4503E68F11A16F040A6
:103B0000A22F232F342F4427585FF3CF46953795A4
:103B10002795A795F0405395C9F77EF41F16BA0B69
:103B2000620B730B840BBAF09150A1F0FF0FBB1F17
:103B3000661F771F881FC2F70EC0BA0F621F731F60
:103B4000841F48F4879577956795B795F7959E3FBD
:103B500008F0B3CF9395880F08F09927EE0F97954B
:103B600087950895D9D008F481E008950CD00FC14D
:103B700007D140F0FED030F021F45F3F19F0F0C0E3
:103B8000511139C1F3C014D198F39923C9F35523C6
:103B9000B1F3951B550BBB27AA2762177307840740
:103BA00038F09F5F5F4F220F331F441FAA1FA9F3F6
:103BB00033D00E2E3AF0E0E830D091505040E695E8
:103BC000001CCAF729D0FE2F27D0660F771F881F49
:103BD000BB1F261737074807AB07B0E809F0BB0B38
:103BE000802DBF01FF2793585F4F2AF09E3F51055C
:103BF00068F0B6C000C15F3FECF3983EDCF38695F9
:103C000077956795B795F7959F5FC9F7880F911DD1
:103C10009695879597F90895E1E0660F771F881FBD
:103C2000BB1F621773078407BA0720F0621B730B70
:103C3000840BBA0BEE1F88F7E095089504D06894C2
:103C4000B111D9C00895BCD088F09F5790F0B92F1A
:103C50009927B751A0F0D1F0660F771F881F991FE1
:103C60001AF0BA95C9F712C0B13081F0C3D0B1E0F3
:103C70000895C0C0672F782F8827B85F39F0B93F03
:103C8000CCF3869577956795B395D9F73EF49095E3
:103C90008095709561957F4F8F4F9F4F0895E89461
:103CA00009C097FB3EF490958095709561957F4F84
:103CB0008F4F9F4F9923A9F0F92F96E9BB27939532
:103CC000F695879577956795B795F111F8CFFAF442
:103CD000BB0F11F460FF1BC06F5F7F4F8F4F9F4F73
:103CE00016C0882311F096E911C0772321F09EE8D1
:103CF000872F762F05C0662371F096E8862F70E037
:103D000060E02AF09A95660F771F881FDAF7880F10
:103D10009695879597F90895990F0008550FAA0B66
:103D2000E0E8FEEF16161706E807F907C0F01216CE
:103D30001306E407F50798F0621B730B840B950BD1
:103D400039F40A2661F0232B242B252B21F4089526
:103D50000A2609F4A140A6958FEF811D811D0895C3
:103D600097F99F6780E870E060E008959FEF80EC2E
:103D7000089500240A9416161706180609060895D1
:103D800000240A9412161306140605060895092E37
:103D90000394000C11F4882352F0BB0F40F4BF2BA6
:103DA00011F460FF04C06F5F7F4F8F4F9F4F0895E6
:103DB00057FD9058440F551F59F05F3F71F04795DC
:103DC000880F97FB991F61F09F3F79F087950895C1
:103DD000121613061406551FF2CF4695F1DF08C0E0
:103DE000161617061806991FF1CF869571056105FD
:103DF00008940895E894BB2766277727CB0197F9A5
:103E000008958ADF08F48FEF08950BD0C0CFB1DF9B
:103E100028F0B6DF18F0952309F0A2CFA7CF112420
:103E2000EACFC6DFA0F3959FD1F3950F50E0551F61
:103E3000629FF001729FBB27F00DB11D639FAA27FF
:103E4000F00DB11DAA1F649F6627B00DA11D661F4E
:103E5000829F2227B00DA11D621F739FB00DA11D6F
:103E6000621F839FA00D611D221F749F3327A00D29
:103E7000611D231F849F600D211D822F762F6A2FC5
:103E800011249F5750408AF0E1F088234AF0EE0F4A
:103E9000FF1FBB1F661F771F881F91505040A9F757
:103EA0009E3F510570F05CCFA6CF5F3FECF3983E8C
:103EB000DCF3869577956795B795F795E7959F5FBE
:103EC000C1F7FE2B880F911D9695879597F9089558
:103ED000DB018F939F930E94CB1FBF91AF91A29F55
:103EE000800D911DA39F900DB29F900D11240895F8
:103EF000991B79E004C0991F961708F0961B881F3C
:103F00007A95C9F780950895A1E21A2EAA1BBB1BCA
:103F1000FD010DC0AA1FBB1FEE1FFF1FA217B30795
:103F2000E407F50720F0A21BB30BE40BF50B661FAB
:103F3000771F881F991F1A9469F76095709580956F
:103F400090959B01AC01BD01CF010895052E97FB13
:103F50001EF400940E94BD1F57FD07D00E94841FCD
:103F600007FC03D04EF40C94BD1F5095409530953E
:103F700021953F4F4F4F5F4F0895909580957095D5
:103F800061957F4F8F4F9F4F0895EE0FFF1F059054
:103F9000F491E02D09940E94D61FA59F900DB49F27
:103FA000900DA49F800D911D11240895A29FB00132
:103FB000B39FC001A39F700D811D1124911DB29F5D
:0E3FC000700D811D1124911D0895F894FFCFFE
:103FCE000100000000003442000034C22E012C011A
:103FDE002A01280126012401220120011E010200CE
:103FEE0004000400020003000400020002000400AA
:103FFE0062015E015A01560152014E014A0146010B
:10400E00420103000300030002000300010002004E
:10401E000300020002000200010001000300010083
:10402E000200010001000100010001000100010079
:10403E0001000100010001000000803F0000803FF0
:10404E000000803F0000803F0000803F0000803F66
:10405E000000803F0000803F0000803F9E01000076
:10406E0001000100010000000003FA02AE01EC01A4
:10407E00E001D401C801B801000070410000F04118
:10408E000000344200003442000000000000704185
:10409E000000F041000070C10000000000007041FF
:1040AE000000F0C1000070C100000000000034C22A
:1040BE00000034C20000F0C1000070C136020002E0
:1040CE002602160206020000484100006841000068
:1040DE00E0410000E0410000D04000001841000027
:1040EE00484100008C41000000000000000000006C
:1040FE00D040000018415C024C023C0200004841D6
:10410E00000068410000E0410000E0410000D040A6
:10411E00000018410000484100008C4100000000E2
:10412E00000000000000D040000018410300030012
:10413E00B000910104000453746172740043414E47
:10414E002042555320536869656C6420696E69740A
:10415E00206F6B210043414E204255532053686916
:10416E00656C6420696E6974206661696C00496EC5
:10417E0069742043414E2042555320536869656C43
:10418E006420616761696E00000000009F15721562
:10419E0047154F156215711500000000731AEF1BBD
:1041AE00F5190E1A001A511A0D0A006E616E006989
:0A41BE006E66006F7666002E0000AA
:00000001FF
